{
  "contractName": "Marketplace",
  "abi": [
    {
      "inputs": [
        {
          "internalType": "contract Token",
          "name": "_tokenContract",
          "type": "address"
        }
      ],
      "stateMutability": "nonpayable",
      "type": "constructor"
    },
    {
      "inputs": [
        {
          "internalType": "address",
          "name": "",
          "type": "address"
        }
      ],
      "name": "evaluatorList",
      "outputs": [
        {
          "internalType": "string",
          "name": "name",
          "type": "string"
        },
        {
          "internalType": "uint256",
          "name": "reputation",
          "type": "uint256"
        },
        {
          "internalType": "string",
          "name": "expertiseDomain",
          "type": "string"
        }
      ],
      "stateMutability": "view",
      "type": "function",
      "constant": true
    },
    {
      "inputs": [
        {
          "internalType": "address",
          "name": "",
          "type": "address"
        }
      ],
      "name": "financierList",
      "outputs": [
        {
          "internalType": "string",
          "name": "name",
          "type": "string"
        }
      ],
      "stateMutability": "view",
      "type": "function",
      "constant": true
    },
    {
      "inputs": [
        {
          "internalType": "address",
          "name": "",
          "type": "address"
        }
      ],
      "name": "freelencerList",
      "outputs": [
        {
          "internalType": "string",
          "name": "name",
          "type": "string"
        },
        {
          "internalType": "uint256",
          "name": "reputation",
          "type": "uint256"
        },
        {
          "internalType": "string",
          "name": "expertiseDomain",
          "type": "string"
        }
      ],
      "stateMutability": "view",
      "type": "function",
      "constant": true
    },
    {
      "inputs": [
        {
          "internalType": "address",
          "name": "",
          "type": "address"
        }
      ],
      "name": "managerList",
      "outputs": [
        {
          "internalType": "string",
          "name": "name",
          "type": "string"
        },
        {
          "internalType": "uint256",
          "name": "reputation",
          "type": "uint256"
        }
      ],
      "stateMutability": "view",
      "type": "function",
      "constant": true
    },
    {
      "inputs": [
        {
          "internalType": "uint256",
          "name": "",
          "type": "uint256"
        }
      ],
      "name": "productList",
      "outputs": [
        {
          "internalType": "uint256",
          "name": "id",
          "type": "uint256"
        },
        {
          "internalType": "bool",
          "name": "active",
          "type": "bool"
        },
        {
          "internalType": "bool",
          "name": "prodExists",
          "type": "bool"
        },
        {
          "internalType": "string",
          "name": "description",
          "type": "string"
        },
        {
          "internalType": "uint256",
          "name": "developingCost",
          "type": "uint256"
        },
        {
          "internalType": "uint256",
          "name": "evaluatorCompensation",
          "type": "uint256"
        },
        {
          "internalType": "uint256",
          "name": "balance",
          "type": "uint256"
        },
        {
          "internalType": "uint256",
          "name": "totalSum",
          "type": "uint256"
        },
        {
          "internalType": "string",
          "name": "expertiseDomain",
          "type": "string"
        },
        {
          "internalType": "address",
          "name": "associatedManager",
          "type": "address"
        }
      ],
      "stateMutability": "view",
      "type": "function",
      "constant": true
    },
    {
      "inputs": [
        {
          "internalType": "string",
          "name": "_name",
          "type": "string"
        }
      ],
      "name": "initManager",
      "outputs": [
        {
          "internalType": "bool",
          "name": "success",
          "type": "bool"
        }
      ],
      "stateMutability": "nonpayable",
      "type": "function"
    },
    {
      "inputs": [
        {
          "internalType": "string",
          "name": "_name",
          "type": "string"
        },
        {
          "internalType": "string",
          "name": "_expertiseDomain",
          "type": "string"
        }
      ],
      "name": "initFreelancer",
      "outputs": [
        {
          "internalType": "bool",
          "name": "success",
          "type": "bool"
        }
      ],
      "stateMutability": "nonpayable",
      "type": "function"
    },
    {
      "inputs": [
        {
          "internalType": "string",
          "name": "_name",
          "type": "string"
        },
        {
          "internalType": "string",
          "name": "_expertiseDomain",
          "type": "string"
        }
      ],
      "name": "initEvaluator",
      "outputs": [
        {
          "internalType": "bool",
          "name": "success",
          "type": "bool"
        }
      ],
      "stateMutability": "nonpayable",
      "type": "function"
    },
    {
      "inputs": [
        {
          "internalType": "string",
          "name": "_name",
          "type": "string"
        }
      ],
      "name": "initFinancier",
      "outputs": [
        {
          "internalType": "bool",
          "name": "success",
          "type": "bool"
        }
      ],
      "stateMutability": "nonpayable",
      "type": "function"
    },
    {
      "inputs": [
        {
          "internalType": "string",
          "name": "prodDescription",
          "type": "string"
        },
        {
          "internalType": "uint256",
          "name": "developCost",
          "type": "uint256"
        },
        {
          "internalType": "uint256",
          "name": "evalCompensation",
          "type": "uint256"
        },
        {
          "internalType": "string",
          "name": "domainProd",
          "type": "string"
        }
      ],
      "name": "managerAddProduct",
      "outputs": [],
      "stateMutability": "nonpayable",
      "type": "function"
    },
    {
      "inputs": [
        {
          "internalType": "uint256",
          "name": "id",
          "type": "uint256"
        }
      ],
      "name": "managerInactivateProduct",
      "outputs": [],
      "stateMutability": "nonpayable",
      "type": "function"
    },
    {
      "inputs": [],
      "name": "managerShowInactiveProductsId",
      "outputs": [
        {
          "internalType": "uint256[]",
          "name": "",
          "type": "uint256[]"
        }
      ],
      "stateMutability": "view",
      "type": "function",
      "constant": true
    },
    {
      "inputs": [],
      "name": "managerShowActiveProductsId",
      "outputs": [
        {
          "internalType": "uint256[]",
          "name": "",
          "type": "uint256[]"
        }
      ],
      "stateMutability": "view",
      "type": "function",
      "constant": true
    },
    {
      "inputs": [],
      "name": "managerShowAllProductsId",
      "outputs": [
        {
          "internalType": "uint256[]",
          "name": "",
          "type": "uint256[]"
        }
      ],
      "stateMutability": "view",
      "type": "function",
      "constant": true
    },
    {
      "inputs": [
        {
          "internalType": "uint256",
          "name": "productId",
          "type": "uint256"
        },
        {
          "internalType": "uint256",
          "name": "tokenAmount",
          "type": "uint256"
        }
      ],
      "name": "financierContributeToProduct",
      "outputs": [],
      "stateMutability": "payable",
      "type": "function",
      "payable": true
    },
    {
      "inputs": [
        {
          "internalType": "uint256",
          "name": "id",
          "type": "uint256"
        }
      ],
      "name": "financierRetrieveAmount",
      "outputs": [],
      "stateMutability": "nonpayable",
      "type": "function"
    },
    {
      "inputs": [],
      "name": "mfShowUnfinancedActiveProductsId",
      "outputs": [
        {
          "internalType": "string",
          "name": "result",
          "type": "string"
        },
        {
          "internalType": "uint256[]",
          "name": "",
          "type": "uint256[]"
        }
      ],
      "stateMutability": "view",
      "type": "function",
      "constant": true
    },
    {
      "inputs": [],
      "name": "showFinancedProductsId",
      "outputs": [
        {
          "internalType": "string",
          "name": "result",
          "type": "string"
        },
        {
          "internalType": "uint256[]",
          "name": "",
          "type": "uint256[]"
        }
      ],
      "stateMutability": "view",
      "type": "function",
      "constant": true
    },
    {
      "inputs": [
        {
          "internalType": "uint256",
          "name": "id",
          "type": "uint256"
        }
      ],
      "name": "showProductInfo",
      "outputs": [
        {
          "internalType": "string",
          "name": "showDescr",
          "type": "string"
        },
        {
          "internalType": "uint256",
          "name": "showDev",
          "type": "uint256"
        },
        {
          "internalType": "uint256",
          "name": "showRev",
          "type": "uint256"
        },
        {
          "internalType": "uint256",
          "name": "showBalance",
          "type": "uint256"
        },
        {
          "internalType": "uint256",
          "name": "showTotal",
          "type": "uint256"
        },
        {
          "internalType": "string",
          "name": "showDomain",
          "type": "string"
        }
      ],
      "stateMutability": "view",
      "type": "function",
      "constant": true
    }
  ],
  "bytecode": "0x608060405234801561001057600080fd5b5060405162004575380380620045758339818101604052602081101561003557600080fd5b810190808051906020019092919050505033600160006101000a81548173ffffffffffffffffffffffffffffffffffffffff021916908373ffffffffffffffffffffffffffffffffffffffff160217905550806000806101000a81548173ffffffffffffffffffffffffffffffffffffffff021916908373ffffffffffffffffffffffffffffffffffffffff16021790555060006002819055505061449580620000e06000396000f3fe6080604052600436106101145760003560e01c80634ab5dcd8116100a0578063a59be4c711610064578063a59be4c714610bff578063c526208214610cd0578063dd26395114610e0c578063e88726cf14610f83578063f15c2d5c146110fa57610114565b80634ab5dcd81461076e578063528c87d2146108385780636b35670f146109c45780636c03ac7514610ab35780636c88fedd14610b1f57610114565b8063186870af116100e7578063186870af146103d55780632d819e54146104b55780632ed56faa146104ed5780633383de8d146105c55780633d980b551461063157610114565b80630e55860d146101195780630e68e77114610256578063120b12ab14610291578063143ca6bf14610369575b600080fd5b34801561012557600080fd5b506101686004803603602081101561013c57600080fd5b81019080803573ffffffffffffffffffffffffffffffffffffffff169060200190929190505050611135565b604051808060200184815260200180602001838103835286818151815260200191508051906020019080838360005b838110156101b2578082015181840152602081019050610197565b50505050905090810190601f1680156101df5780820380516001836020036101000a031916815260200191505b50838103825284818151815260200191508051906020019080838360005b838110156102185780820151818401526020810190506101fd565b50505050905090810190601f1680156102455780820380516001836020036101000a031916815260200191505b509550505050505060405180910390f35b34801561026257600080fd5b5061028f6004803603602081101561027957600080fd5b810190808035906020019092919050505061128f565b005b34801561029d57600080fd5b506102a66116f0565b604051808060200180602001838103835285818151815260200191508051906020019080838360005b838110156102ea5780820151818401526020810190506102cf565b50505050905090810190601f1680156103175780820380516001836020036101000a031916815260200191505b50838103825284818151815260200191508051906020019060200280838360005b83811015610353578082015181840152602081019050610338565b5050505090500194505050505060405180910390f35b34801561037557600080fd5b5061037e61193e565b6040518080602001828103825283818151815260200191508051906020019060200280838360005b838110156103c15780820151818401526020810190506103a6565b505050509050019250505060405180910390f35b3480156103e157600080fd5b5061049b600480360360208110156103f857600080fd5b810190808035906020019064010000000081111561041557600080fd5b82018360208201111561042757600080fd5b8035906020019184600183028401116401000000008311171561044957600080fd5b91908080601f016020809104026020016040519081016040528093929190818152602001838380828437600081840152601f19601f820116905080830192505050505050509192919290505050611ad4565b604051808215151515815260200191505060405180910390f35b6104eb600480360360408110156104cb57600080fd5b810190808035906020019092919080359060200190929190505050611d4c565b005b3480156104f957600080fd5b50610502612392565b604051808060200180602001838103835285818151815260200191508051906020019080838360005b8381101561054657808201518184015260208101905061052b565b50505050905090810190601f1680156105735780820380516001836020036101000a031916815260200191505b50838103825284818151815260200191508051906020019060200280838360005b838110156105af578082015181840152602081019050610594565b5050505090500194505050505060405180910390f35b3480156105d157600080fd5b506105da612642565b6040518080602001828103825283818151815260200191508051906020019060200280838360005b8381101561061d578082015181840152602081019050610602565b505050509050019250505060405180910390f35b34801561063d57600080fd5b506106806004803603602081101561065457600080fd5b81019080803573ffffffffffffffffffffffffffffffffffffffff1690602001909291905050506127a7565b604051808060200184815260200180602001838103835286818151815260200191508051906020019080838360005b838110156106ca5780820151818401526020810190506106af565b50505050905090810190601f1680156106f75780820380516001836020036101000a031916815260200191505b50838103825284818151815260200191508051906020019080838360005b83811015610730578082015181840152602081019050610715565b50505050905090810190601f16801561075d5780820380516001836020036101000a031916815260200191505b509550505050505060405180910390f35b34801561077a57600080fd5b506107bd6004803603602081101561079157600080fd5b81019080803573ffffffffffffffffffffffffffffffffffffffff169060200190929190505050612901565b6040518080602001828103825283818151815260200191508051906020019080838360005b838110156107fd5780820151818401526020810190506107e2565b50505050905090810190601f16801561082a5780820380516001836020036101000a031916815260200191505b509250505060405180910390f35b34801561084457600080fd5b506108716004803603602081101561085b57600080fd5b81019080803590602001909291905050506129b7565b604051808b81526020018a1515151581526020018915151515815260200180602001888152602001878152602001868152602001858152602001806020018473ffffffffffffffffffffffffffffffffffffffff1673ffffffffffffffffffffffffffffffffffffffff16815260200183810383528a818151815260200191508051906020019080838360005b838110156109195780820151818401526020810190506108fe565b50505050905090810190601f1680156109465780820380516001836020036101000a031916815260200191505b50838103825285818151815260200191508051906020019080838360005b8381101561097f578082015181840152602081019050610964565b50505050905090810190601f1680156109ac5780820380516001836020036101000a031916815260200191505b509c5050505050505050505050505060405180910390f35b3480156109d057600080fd5b50610ab1600480360360808110156109e757600080fd5b8101908080359060200190640100000000811115610a0457600080fd5b820183602082011115610a1657600080fd5b80359060200191846001830284011164010000000083111715610a3857600080fd5b9091929391929390803590602001909291908035906020019092919080359060200190640100000000811115610a6d57600080fd5b820183602082011115610a7f57600080fd5b80359060200191846001830284011164010000000083111715610aa157600080fd5b9091929391929390505050612b75565b005b348015610abf57600080fd5b50610ac8612eb1565b6040518080602001828103825283818151815260200191508051906020019060200280838360005b83811015610b0b578082015181840152602081019050610af0565b505050509050019250505060405180910390f35b348015610b2b57600080fd5b50610be560048036036020811015610b4257600080fd5b8101908080359060200190640100000000811115610b5f57600080fd5b820183602082011115610b7157600080fd5b80359060200191846001830284011164010000000083111715610b9357600080fd5b91908080601f016020809104026020016040519081016040528093929190818152602001838380828437600081840152601f19601f820116905080830192505050505050509192919290505050613047565b604051808215151515815260200191505060405180910390f35b348015610c0b57600080fd5b50610c4e60048036036020811015610c2257600080fd5b81019080803573ffffffffffffffffffffffffffffffffffffffff1690602001909291905050506130d1565b6040518080602001838152602001828103825284818151815260200191508051906020019080838360005b83811015610c94578082015181840152602081019050610c79565b50505050905090810190601f168015610cc15780820380516001836020036101000a031916815260200191505b50935050505060405180910390f35b348015610cdc57600080fd5b50610d0960048036036020811015610cf357600080fd5b810190808035906020019092919050505061318d565b604051808060200187815260200186815260200185815260200184815260200180602001838103835289818151815260200191508051906020019080838360005b83811015610d65578082015181840152602081019050610d4a565b50505050905090810190601f168015610d925780820380516001836020036101000a031916815260200191505b50838103825284818151815260200191508051906020019080838360005b83811015610dcb578082015181840152602081019050610db0565b50505050905090810190601f168015610df85780820380516001836020036101000a031916815260200191505b509850505050505050505060405180910390f35b348015610e1857600080fd5b50610f6960048036036040811015610e2f57600080fd5b8101908080359060200190640100000000811115610e4c57600080fd5b820183602082011115610e5e57600080fd5b80359060200191846001830284011164010000000083111715610e8057600080fd5b91908080601f016020809104026020016040519081016040528093929190818152602001838380828437600081840152601f19601f82011690508083019250505050505050919291929080359060200190640100000000811115610ee357600080fd5b820183602082011115610ef557600080fd5b80359060200191846001830284011164010000000083111715610f1757600080fd5b91908080601f016020809104026020016040519081016040528093929190818152602001838380828437600081840152601f19601f820116905080830192505050505050509192919290505050613b80565b604051808215151515815260200191505060405180910390f35b348015610f8f57600080fd5b506110e060048036036040811015610fa657600080fd5b8101908080359060200190640100000000811115610fc357600080fd5b820183602082011115610fd557600080fd5b80359060200191846001830284011164010000000083111715610ff757600080fd5b91908080601f016020809104026020016040519081016040528093929190818152602001838380828437600081840152601f19601f8201169050808301925050505050505091929192908035906020019064010000000081111561105a57600080fd5b82018360208201111561106c57600080fd5b8035906020019184600183028401116401000000008311171561108e57600080fd5b91908080601f016020809104026020016040519081016040528093929190818152602001838380828437600081840152601f19601f820116905080830192505050505050509192919290505050613c2e565b604051808215151515815260200191505060405180910390f35b34801561110657600080fd5b506111336004803603602081101561111d57600080fd5b8101908080359060200190929190505050613cdc565b005b6005602052806000526040600020600091509050806000018054600181600116156101000203166002900480601f0160208091040260200160405190810160405280929190818152602001828054600181600116156101000203166002900480156111e15780601f106111b6576101008083540402835291602001916111e1565b820191906000526020600020905b8154815290600101906020018083116111c457829003601f168201915b505050505090806001015490806002018054600181600116156101000203166002900480601f0160208091040260200160405190810160405280929190818152602001828054600181600116156101000203166002900480156112855780601f1061125a57610100808354040283529160200191611285565b820191906000526020600020905b81548152906001019060200180831161126857829003601f168201915b5050505050905083565b6000600660003373ffffffffffffffffffffffffffffffffffffffff1673ffffffffffffffffffffffffffffffffffffffff168152602001908152602001600020600001805460018160011615610100020316600290049050141561135c576040517f08c379a00000000000000000000000000000000000000000000000000000000081526004018080602001828103825260178152602001807f596f7520617265206e6f7420612066696e616e6369657200000000000000000081525060200191505060405180910390fd5b600115156007600083815260200190815260200160002060010160019054906101000a900460ff161515146113f9576040517f08c379a00000000000000000000000000000000000000000000000000000000081526004018080602001828103825260138152602001807f496e76616c69642070726f647563742049442e0000000000000000000000000081525060200191505060405180910390fd5b600760008281526020019081526020016000206006015460076000838152602001908152602001600020600501541061147d576040517f08c379a00000000000000000000000000000000000000000000000000000000081526004018080602001828103825260328152602001806144096032913960400191505060405180910390fd5b60006007600083815260200190815260200160002060090160003373ffffffffffffffffffffffffffffffffffffffff1673ffffffffffffffffffffffffffffffffffffffff1681526020019081526020016000205411611529576040517f08c379a00000000000000000000000000000000000000000000000000000000081526004018080602001828103825260248152602001806143856024913960400191505060405180910390fd5b6000809054906101000a900473ffffffffffffffffffffffffffffffffffffffff1673ffffffffffffffffffffffffffffffffffffffff166323b872dd30336007600086815260200190815260200160002060090160003373ffffffffffffffffffffffffffffffffffffffff1673ffffffffffffffffffffffffffffffffffffffff168152602001908152602001600020546040518463ffffffff1660e01b8152600401808473ffffffffffffffffffffffffffffffffffffffff1673ffffffffffffffffffffffffffffffffffffffff1681526020018373ffffffffffffffffffffffffffffffffffffffff1673ffffffffffffffffffffffffffffffffffffffff1681526020018281526020019350505050602060405180830381600087803b15801561165857600080fd5b505af115801561166c573d6000803e3d6000fd5b505050506040513d602081101561168257600080fd5b81019080805190602001909291905050505060006007600083815260200190815260200160002060090160003373ffffffffffffffffffffffffffffffffffffffff1673ffffffffffffffffffffffffffffffffffffffff1681526020019081526020016000208190555050565b6060806000600360003373ffffffffffffffffffffffffffffffffffffffff1673ffffffffffffffffffffffffffffffffffffffff1681526020019081526020016000206000018054600181600116156101000203166002900490501415806117b057506000600660003373ffffffffffffffffffffffffffffffffffffffff1673ffffffffffffffffffffffffffffffffffffffff16815260200190815260200160002060000180546001816001161561010002031660029004905014155b156118e757600080905060606002546040519080825280602002602001820160405280156117ed5781602001602082028038833980820191505090505b5090506000600190505b60025481116118a3576007600082815260200190815260200160002060010160009054906101000a900460ff16801561185b575060076000828152602001908152602001600020600601546007600083815260200190815260200160002060050154105b1561189057600760008281526020019081526020016000206000015482848151811061188357fe5b6020026020010181815250505b60018301925080806001019150506117f7565b50806040518060400160405280600d81526020017f50726f64756374732049443a20000000000000000000000000000000000000008152509093509350505061193a565b60006040519080825280602002602001820160405280156119175781602001602082028038833980820191505090505b5060405180606001604052806025815260200161443b6025913990809050915091505b9091565b60606000600360003373ffffffffffffffffffffffffffffffffffffffff1673ffffffffffffffffffffffffffffffffffffffff1681526020019081526020016000206000018054600181600116156101000203166002900490501415611a0d576040517f08c379a00000000000000000000000000000000000000000000000000000000081526004018080602001828103825260158152602001807f596f7520617265206e6f742061206d616e61676572000000000000000000000081525060200191505060405180910390fd5b6060600254604051908082528060200260200182016040528015611a405781602001602082028038833980820191505090505b50905060008090506000600190505b6002548111611acb57600115156007600083815260200190815260200160002060010160009054906101000a900460ff1615151415611ab8576007600082815260200190815260200160002060000154838381518110611aab57fe5b6020026020010181815250505b6001820191508080600101915050611a4f565b50819250505090565b60003373ffffffffffffffffffffffffffffffffffffffff16600160009054906101000a900473ffffffffffffffffffffffffffffffffffffffff1673ffffffffffffffffffffffffffffffffffffffff161415611b9a576040517f08c379a00000000000000000000000000000000000000000000000000000000081526004018080602001828103825260058152602001807f706963617400000000000000000000000000000000000000000000000000000081525060200191505060405180910390fd5b6000809054906101000a900473ffffffffffffffffffffffffffffffffffffffff1673ffffffffffffffffffffffffffffffffffffffff166323b872dd600160009054906101000a900473ffffffffffffffffffffffffffffffffffffffff1633600a6040518463ffffffff1660e01b8152600401808473ffffffffffffffffffffffffffffffffffffffff1673ffffffffffffffffffffffffffffffffffffffff1681526020018373ffffffffffffffffffffffffffffffffffffffff1673ffffffffffffffffffffffffffffffffffffffff1681526020018281526020019350505050602060405180830381600087803b158015611c9957600080fd5b505af1158015611cad573d6000803e3d6000fd5b505050506040513d6020811015611cc357600080fd5b810190808051906020019092919050505050604051806020016040528083815250600660003373ffffffffffffffffffffffffffffffffffffffff1673ffffffffffffffffffffffffffffffffffffffff1681526020019081526020016000206000820151816000019080519060200190611d3f929190614212565b5090505060019050919050565b6000600660003373ffffffffffffffffffffffffffffffffffffffff1673ffffffffffffffffffffffffffffffffffffffff1681526020019081526020016000206000018054600181600116156101000203166002900490501415611e19576040517f08c379a00000000000000000000000000000000000000000000000000000000081526004018080602001828103825260178152602001807f596f7520617265206e6f7420612066696e616e6369657200000000000000000081525060200191505060405180910390fd5b6000811415611e90576040517f08c379a000000000000000000000000000000000000000000000000000000000815260040180806020018281038252601c8152602001807f506c6561736520656e74657220612076616c696420616d6f756e74210000000081525060200191505060405180910390fd5b600115156007600084815260200190815260200160002060010160019054906101000a900460ff16151514611f2d576040517f08c379a00000000000000000000000000000000000000000000000000000000081526004018080602001828103825260138152602001807f496e76616c69642070726f647563742049442e0000000000000000000000000081525060200191505060405180910390fd5b6007600083815260200190815260200160002060060154600760008481526020019081526020016000206005015410611fce576040517f08c379a000000000000000000000000000000000000000000000000000000000815260040180806020018281038252600d8152602001807f476f616c20726561636865642e0000000000000000000000000000000000000081525060200191505060405180910390fd5b60008160076000858152602001908152602001600020600501540190506007600084815260200190815260200160002060060154811115612077576040517f08c379a00000000000000000000000000000000000000000000000000000000081526004018080602001828103825260168152602001807f54686520616d6f756e7420697320746f6f20626967210000000000000000000081525060200191505060405180910390fd5b600060076000858152602001908152602001600020600a018054905090506000809050600082146121475760008090505b82811015612145573373ffffffffffffffffffffffffffffffffffffffff1660076000888152602001908152602001600020600a0182815481106120e857fe5b9060005260206000200160009054906101000a900473ffffffffffffffffffffffffffffffffffffffff1673ffffffffffffffffffffffffffffffffffffffff1614156121385760019150612145565b80806001019150506120a8565b505b6000151581151514156121cc5760076000868152602001908152602001600020600a01339080600181540180825580915050600190039060005260206000200160009091909190916101000a81548173ffffffffffffffffffffffffffffffffffffffff021916908373ffffffffffffffffffffffffffffffffffffffff1602179055505b6000809054906101000a900473ffffffffffffffffffffffffffffffffffffffff1673ffffffffffffffffffffffffffffffffffffffff166323b872dd33600160009054906101000a900473ffffffffffffffffffffffffffffffffffffffff16876040518463ffffffff1660e01b8152600401808473ffffffffffffffffffffffffffffffffffffffff1673ffffffffffffffffffffffffffffffffffffffff1681526020018373ffffffffffffffffffffffffffffffffffffffff1673ffffffffffffffffffffffffffffffffffffffff1681526020018281526020019350505050602060405180830381600087803b1580156122ca57600080fd5b505af11580156122de573d6000803e3d6000fd5b505050506040513d60208110156122f457600080fd5b810190808051906020019092919050505050836007600087815260200190815260200160002060050160008282540192505081905550836007600087815260200190815260200160002060090160003373ffffffffffffffffffffffffffffffffffffffff1673ffffffffffffffffffffffffffffffffffffffff168152602001908152602001600020600082825401925050819055505050505050565b6060806000600360003373ffffffffffffffffffffffffffffffffffffffff1673ffffffffffffffffffffffffffffffffffffffff16815260200190815260200160002060000180546001816001161561010002031660029004905014158061245257506000600460003373ffffffffffffffffffffffffffffffffffffffff1673ffffffffffffffffffffffffffffffffffffffff16815260200190815260200160002060000180546001816001161561010002031660029004905014155b806124b457506000600560003373ffffffffffffffffffffffffffffffffffffffff1673ffffffffffffffffffffffffffffffffffffffff16815260200190815260200160002060000180546001816001161561010002031660029004905014155b156125eb5760606002546040519080825280602002602001820160405280156124ec5781602001602082028038833980820191505090505b50905060008090506000600190505b60025481116125a7576007600082815260200190815260200160002060010160009054906101000a900460ff16801561255f575060076000828152602001908152602001600020600601546007600083815260200190815260200160002060050154145b1561259457600760008281526020019081526020016000206000015483838151811061258757fe5b6020026020010181815250505b60018201915080806001019150506124fb565b50816040518060400160405280600d81526020017f50726f64756374732049443a20000000000000000000000000000000000000008152509093509350505061263e565b600060405190808252806020026020018201604052801561261b5781602001602082028038833980820191505090505b506040518060600160405280603181526020016143d86031913990809050915091505b9091565b60606000600360003373ffffffffffffffffffffffffffffffffffffffff1673ffffffffffffffffffffffffffffffffffffffff1681526020019081526020016000206000018054600181600116156101000203166002900490501415612711576040517f08c379a00000000000000000000000000000000000000000000000000000000081526004018080602001828103825260158152602001807f596f7520617265206e6f742061206d616e61676572000000000000000000000081525060200191505060405180910390fd5b60606002546040519080825280602002602001820160405280156127445781602001602082028038833980820191505090505b50905060008090506000600190505b600254811161279e57600760008281526020019081526020016000206000015483838151811061277f57fe5b6020026020010181815250506001820191508080600101915050612753565b50819250505090565b6004602052806000526040600020600091509050806000018054600181600116156101000203166002900480601f0160208091040260200160405190810160405280929190818152602001828054600181600116156101000203166002900480156128535780601f1061282857610100808354040283529160200191612853565b820191906000526020600020905b81548152906001019060200180831161283657829003601f168201915b505050505090806001015490806002018054600181600116156101000203166002900480601f0160208091040260200160405190810160405280929190818152602001828054600181600116156101000203166002900480156128f75780601f106128cc576101008083540402835291602001916128f7565b820191906000526020600020905b8154815290600101906020018083116128da57829003601f168201915b5050505050905083565b6006602052806000526040600020600091509050806000018054600181600116156101000203166002900480601f0160208091040260200160405190810160405280929190818152602001828054600181600116156101000203166002900480156129ad5780601f10612982576101008083540402835291602001916129ad565b820191906000526020600020905b81548152906001019060200180831161299057829003601f168201915b5050505050905081565b60076020528060005260406000206000915090508060000154908060010160009054906101000a900460ff16908060010160019054906101000a900460ff1690806002018054600181600116156101000203166002900480601f016020809104026020016040519081016040528092919081815260200182805460018160011615610100020316600290048015612a8f5780601f10612a6457610100808354040283529160200191612a8f565b820191906000526020600020905b815481529060010190602001808311612a7257829003601f168201915b505050505090806003015490806004015490806005015490806006015490806007018054600181600116156101000203166002900480601f016020809104026020016040519081016040528092919081815260200182805460018160011615610100020316600290048015612b455780601f10612b1a57610100808354040283529160200191612b45565b820191906000526020600020905b815481529060010190602001808311612b2857829003601f168201915b5050505050908060080160009054906101000a900473ffffffffffffffffffffffffffffffffffffffff1690508a565b6000600360003373ffffffffffffffffffffffffffffffffffffffff1673ffffffffffffffffffffffffffffffffffffffff1681526020019081526020016000206000018054600181600116156101000203166002900490501415612c42576040517f08c379a00000000000000000000000000000000000000000000000000000000081526004018080602001828103825260158152602001807f596f7520617265206e6f742061206d616e61676572000000000000000000000081525060200191505060405180910390fd5b600083850190506001600260008282540192505081905550604051806101600160405280600254815260200160011515815260200160011515815260200188888080601f016020809104026020016040519081016040528093929190818152602001838380828437600081840152601f19601f8201169050808301925050505050505081526020018681526020018581526020016000815260200182815260200184848080601f016020809104026020016040519081016040528093929190818152602001838380828437600081840152601f19601f8201169050808301925050505050505081526020013373ffffffffffffffffffffffffffffffffffffffff1681526020016000604051908082528060200260200182016040528015612d795781602001602082028038833980820191505090505b508152506007600060025481526020019081526020016000206000820151816000015560208201518160010160006101000a81548160ff02191690831515021790555060408201518160010160016101000a81548160ff0219169083151502179055506060820151816002019080519060200190612df8929190614212565b506080820151816003015560a0820151816004015560c0820151816005015560e08201518160060155610100820151816007019080519060200190612e3e929190614212565b506101208201518160080160006101000a81548173ffffffffffffffffffffffffffffffffffffffff021916908373ffffffffffffffffffffffffffffffffffffffff16021790555061014082015181600a019080519060200190612ea4929190614292565b5090505050505050505050565b60606000600360003373ffffffffffffffffffffffffffffffffffffffff1673ffffffffffffffffffffffffffffffffffffffff1681526020019081526020016000206000018054600181600116156101000203166002900490501415612f80576040517f08c379a00000000000000000000000000000000000000000000000000000000081526004018080602001828103825260158152602001807f596f7520617265206e6f742061206d616e61676572000000000000000000000081525060200191505060405180910390fd5b6060600254604051908082528060200260200182016040528015612fb35781602001602082028038833980820191505090505b50905060008090506000600190505b600254811161303e57600015156007600083815260200190815260200160002060010160009054906101000a900460ff161515141561302b57600760008281526020019081526020016000206000015483838151811061301e57fe5b6020026020010181815250505b6001820191508080600101915050612fc2565b50819250505090565b600060405180604001604052808381526020016005815250600360003373ffffffffffffffffffffffffffffffffffffffff1673ffffffffffffffffffffffffffffffffffffffff16815260200190815260200160002060008201518160000190805190602001906130ba929190614212565b506020820151816001015590505060019050919050565b6003602052806000526040600020600091509050806000018054600181600116156101000203166002900480601f01602080910402602001604051908101604052809291908181526020018280546001816001161561010002031660029004801561317d5780601f106131525761010080835404028352916020019161317d565b820191906000526020600020905b81548152906001019060200180831161316057829003601f168201915b5050505050908060010154905082565b60606000806000806060600115156007600089815260200190815260200160002060010160019054906101000a900460ff16151514613234576040517f08c379a00000000000000000000000000000000000000000000000000000000081526004018080602001828103825260138152602001807f496e76616c69642070726f647563742049442e0000000000000000000000000081525060200191505060405180910390fd5b6000600360003373ffffffffffffffffffffffffffffffffffffffff1673ffffffffffffffffffffffffffffffffffffffff1681526020019081526020016000206000018054600181600116156101000203166002900490501461346357600760008881526020019081526020016000206002016007600089815260200190815260200160002060030154600760008a815260200190815260200160002060040154600760008b815260200190815260200160002060050154600760008c815260200190815260200160002060060154600760008d8152602001908152602001600020600701858054600181600116156101000203166002900480601f0160208091040260200160405190810160405280929190818152602001828054600181600116156101000203166002900480156133af5780601f10613384576101008083540402835291602001916133af565b820191906000526020600020905b81548152906001019060200180831161339257829003601f168201915b50505050509550808054600181600116156101000203166002900480601f01602080910402602001604051908101604052809291908181526020018280546001816001161561010002031660029004801561344b5780601f106134205761010080835404028352916020019161344b565b820191906000526020600020905b81548152906001019060200180831161342e57829003601f168201915b50505050509050955095509550955095509550613b77565b6000600460003373ffffffffffffffffffffffffffffffffffffffff1673ffffffffffffffffffffffffffffffffffffffff16815260200190815260200160002060000180546001816001161561010002031660029004905014158061352057506000600560003373ffffffffffffffffffffffffffffffffffffffff1673ffffffffffffffffffffffffffffffffffffffff16815260200190815260200160002060000180546001816001161561010002031660029004905014155b15613810576007600088815260200190815260200160002060010160009054906101000a900460ff166135bb576040517f08c379a00000000000000000000000000000000000000000000000000000000081526004018080602001828103825260188152602001807f5468652070726f6475637420697320696e6163746976652e000000000000000081525060200191505060405180910390fd5b600760008881526020019081526020016000206006015460076000898152602001908152602001600020600501541461363f576040517f08c379a000000000000000000000000000000000000000000000000000000000815260040180806020018281038252602f8152602001806143a9602f913960400191505060405180910390fd5b600760008881526020019081526020016000206002016007600089815260200190815260200160002060030154600760008a815260200190815260200160002060040154600760008b815260200190815260200160002060050154600760008c815260200190815260200160002060060154600760008d8152602001908152602001600020600701858054600181600116156101000203166002900480601f01602080910402602001604051908101604052809291908181526020018280546001816001161561010002031660029004801561375c5780601f106137315761010080835404028352916020019161375c565b820191906000526020600020905b81548152906001019060200180831161373f57829003601f168201915b50505050509550808054600181600116156101000203166002900480601f0160208091040260200160405190810160405280929190818152602001828054600181600116156101000203166002900480156137f85780601f106137cd576101008083540402835291602001916137f8565b820191906000526020600020905b8154815290600101906020018083116137db57829003601f168201915b50505050509050955095509550955095509550613b77565b6000600660003373ffffffffffffffffffffffffffffffffffffffff1673ffffffffffffffffffffffffffffffffffffffff16815260200190815260200160002060000180546001816001161561010002031660029004905014613b76576007600088815260200190815260200160002060010160009054906101000a900460ff16613904576040517f08c379a00000000000000000000000000000000000000000000000000000000081526004018080602001828103825260188152602001807f5468652070726f6475637420697320696e6163746976652e000000000000000081525060200191505060405180910390fd5b60076000888152602001908152602001600020600601546007600089815260200190815260200160002060050154106139a5576040517f08c379a000000000000000000000000000000000000000000000000000000000815260040180806020018281038252601e8152602001807f5468652070726f647563742069732066756c6c792066696e616e6365642e000081525060200191505060405180910390fd5b600760008881526020019081526020016000206002016007600089815260200190815260200160002060030154600760008a815260200190815260200160002060040154600760008b815260200190815260200160002060050154600760008c815260200190815260200160002060060154600760008d8152602001908152602001600020600701858054600181600116156101000203166002900480601f016020809104026020016040519081016040528092919081815260200182805460018160011615610100020316600290048015613ac25780601f10613a9757610100808354040283529160200191613ac2565b820191906000526020600020905b815481529060010190602001808311613aa557829003601f168201915b50505050509550808054600181600116156101000203166002900480601f016020809104026020016040519081016040528092919081815260200182805460018160011615610100020316600290048015613b5e5780601f10613b3357610100808354040283529160200191613b5e565b820191906000526020600020905b815481529060010190602001808311613b4157829003601f168201915b50505050509050955095509550955095509550613b77565b5b91939550919395565b600060405180606001604052808481526020016005815260200183815250600560003373ffffffffffffffffffffffffffffffffffffffff1673ffffffffffffffffffffffffffffffffffffffff1681526020019081526020016000206000820151816000019080519060200190613bf9929190614212565b50602082015181600101556040820151816002019080519060200190613c20929190614212565b509050506001905092915050565b600060405180606001604052808481526020016005815260200183815250600460003373ffffffffffffffffffffffffffffffffffffffff1673ffffffffffffffffffffffffffffffffffffffff1681526020019081526020016000206000820151816000019080519060200190613ca7929190614212565b50602082015181600101556040820151816002019080519060200190613cce929190614212565b509050506001905092915050565b6000600360003373ffffffffffffffffffffffffffffffffffffffff1673ffffffffffffffffffffffffffffffffffffffff1681526020019081526020016000206000018054600181600116156101000203166002900490501415613da9576040517f08c379a00000000000000000000000000000000000000000000000000000000081526004018080602001828103825260158152602001807f596f7520617265206e6f742061206d616e61676572000000000000000000000081525060200191505060405180910390fd5b600115156007600083815260200190815260200160002060010160019054906101000a900460ff16151514613e46576040517f08c379a00000000000000000000000000000000000000000000000000000000081526004018080602001828103825260138152602001807f496e76616c69642070726f647563742049442e0000000000000000000000000081525060200191505060405180910390fd5b6007600082815260200190815260200160002060060154600760008381526020019081526020016000206005015410613eca576040517f08c379a00000000000000000000000000000000000000000000000000000000081526004018080602001828103825260328152602001806144096032913960400191505060405180910390fd5b60006007600083815260200190815260200160002060010160006101000a81548160ff0219169083151502179055506000809050600060076000848152602001908152602001600020600a018054905090506000811461420d5760008090505b8181101561420b5760076000858152602001908152602001600020600901600060076000878152602001908152602001600020600a018381548110613f6b57fe5b9060005260206000200160009054906101000a900473ffffffffffffffffffffffffffffffffffffffff1673ffffffffffffffffffffffffffffffffffffffff1673ffffffffffffffffffffffffffffffffffffffff1681526020019081526020016000205492506000809054906101000a900473ffffffffffffffffffffffffffffffffffffffff1673ffffffffffffffffffffffffffffffffffffffff166323b872dd3060076000888152602001908152602001600020600a01848154811061403257fe5b9060005260206000200160009054906101000a900473ffffffffffffffffffffffffffffffffffffffff16866040518463ffffffff1660e01b8152600401808473ffffffffffffffffffffffffffffffffffffffff1673ffffffffffffffffffffffffffffffffffffffff1681526020018373ffffffffffffffffffffffffffffffffffffffff1673ffffffffffffffffffffffffffffffffffffffff1681526020018281526020019350505050602060405180830381600087803b1580156140fa57600080fd5b505af115801561410e573d6000803e3d6000fd5b505050506040513d602081101561412457600080fd5b810190808051906020019092919050505050826007600086815260200190815260200160002060050160008282540392505081905550600060076000868152602001908152602001600020600901600060076000888152602001908152602001600020600a01848154811061419557fe5b9060005260206000200160009054906101000a900473ffffffffffffffffffffffffffffffffffffffff1673ffffffffffffffffffffffffffffffffffffffff1673ffffffffffffffffffffffffffffffffffffffff168152602001908152602001600020819055508080600101915050613f2a565b505b505050565b828054600181600116156101000203166002900490600052602060002090601f016020900481019282601f1061425357805160ff1916838001178555614281565b82800160010185558215614281579182015b82811115614280578251825591602001919060010190614265565b5b50905061428e919061431c565b5090565b82805482825590600052602060002090810192821561430b579160200282015b8281111561430a5782518260006101000a81548173ffffffffffffffffffffffffffffffffffffffff021916908373ffffffffffffffffffffffffffffffffffffffff160217905550916020019190600101906142b2565b5b5090506143189190614341565b5090565b61433e91905b8082111561433a576000816000905550600101614322565b5090565b90565b61438191905b8082111561437d57600081816101000a81549073ffffffffffffffffffffffffffffffffffffffff021916905550600101614347565b5090565b9056fe596f75206469646e277420737570706f727420746869732070726f6a656374207965742e5468652070726f647563742069732065697468657220696e616374697665206f72206e6f742066696e616e6365642e596f75206d7573742062652061206d616e616765722c20667265656c616e636572206f722061206576616c7561746f722e54686520616d6f756e742077617320726561636865642c2063616e6e6f7420696e61637469766174652070726f6475637421596f75206d7573742062652061206d616e61676572206f7220612066696e616e636965722ea26469706673582212203f6df3995b20a27973a220993d2ca9931f40c335b86e44f2c398b5f858e36c0d64736f6c63430006020033",
  "source": "pragma solidity ^0.6.2;\r\n\r\nimport \"@openzeppelin/contracts/token/ERC20/ERC20.sol\";\r\n\r\ncontract Token is ERC20 {\r\n\r\n    constructor () public ERC20(\"Token\", \"TKN\") {\r\n        _mint(msg.sender, 1000000 * (10 ** uint256(decimals())));\r\n    }\r\n}\r\n\r\n\r\ncontract Marketplace {\r\n    Token tokenContract;\r\n    address owner;\r\n    uint prodTotal; \r\n    \r\n    struct Manager {\r\n        string name;\r\n        uint reputation;\r\n    }\r\n\r\n    struct Freelancer {\r\n        string name;\r\n        uint reputation;\r\n        string expertiseDomain;\r\n    }\r\n\r\n    struct Evaluator {\r\n        string name;\r\n        uint reputation;\r\n        string expertiseDomain;\r\n    }\r\n    \r\n    struct Financier {\r\n        string name;\r\n        //address\r\n    }\r\n\r\n    struct Product {\r\n        uint id;\r\n        bool active;\r\n        bool prodExists;\r\n        string description;\r\n        uint developingCost;\r\n        uint evaluatorCompensation;\r\n        uint balance;\r\n        uint totalSum;\r\n        string expertiseDomain;\r\n        address associatedManager;\r\n        mapping(address => uint) finantare;\r\n        address[] finAddr;\r\n    }\r\n\r\n    mapping(address => Manager) public managerList;\r\n    mapping(address => Freelancer) public freelencerList;\r\n    mapping(address => Evaluator) public evaluatorList;\r\n    mapping(address => Financier) public financierList;\r\n    mapping(uint => Product) public productList; \r\n    \r\n    modifier onlyManager(){\r\n        require(bytes(managerList[msg.sender].name).length != 0, \"You are not a manager\");\r\n        _;\r\n    }\r\n    \r\n    modifier onlyFinancier(){\r\n        require(bytes(financierList[msg.sender].name).length != 0, \"You are not a financier\");\r\n        _;\r\n    }\r\n    \r\n    modifier onlyFreelancer(){\r\n        require(bytes(financierList[msg.sender].name).length != 0, \"You are not a freelancer\");\r\n        _;\r\n    }\r\n    \r\n    modifier onlyEvaluator(){\r\n        require(bytes(financierList[msg.sender].name).length != 0, \"You are not a evaluator\");\r\n        _;\r\n    }\r\n    \r\n    constructor(Token _tokenContract) public {\r\n        owner = msg.sender;\r\n        tokenContract = _tokenContract;\r\n        prodTotal = 0;\r\n    }\r\n\r\n\r\n\r\n\r\n    //functions for init manager, freelancer, evaluator, sponsor\r\n    //ok\r\n    function initManager(string memory _name) public returns (bool success){\r\n        managerList[msg.sender] = Manager(_name, 5);\r\n        return true;\r\n    }\r\n    \r\n    //ok\r\n    function initFreelancer(string memory _name, string memory _expertiseDomain) public returns (bool success){\r\n        freelencerList[msg.sender] = Freelancer(_name, 5, _expertiseDomain);\r\n        return true;\r\n    }\r\n    \r\n    //ok\r\n    function initEvaluator(string memory _name, string memory _expertiseDomain) public returns (bool success){\r\n        evaluatorList[msg.sender] = Evaluator(_name, 5, _expertiseDomain);\r\n        return true;\r\n    }\r\n    \r\n    //ok\r\n    function initFinancier(string memory _name) public returns (bool success){\r\n        require(owner != msg.sender, \"picat\");\r\n        tokenContract.transferFrom(owner, msg.sender, 10);\r\n        financierList[msg.sender] = Financier(_name);\r\n        return true;\r\n    }\r\n\r\n\r\n\r\n\r\n    // only to be called by managers\r\n    //ok\r\n    function managerAddProduct(string calldata prodDescription, uint developCost, uint evalCompensation, string calldata domainProd) external onlyManager() {\r\n        uint totalSumProd = developCost + evalCompensation;\r\n        prodTotal += 1;\r\n        productList[prodTotal] = Product(prodTotal, true, true, prodDescription, developCost, evalCompensation, 0, totalSumProd, domainProd, msg.sender, new address[](0));\r\n    }\r\n    \r\n    // only to be called by managers\r\n    //ok\r\n    function managerInactivateProduct(uint id) public onlyManager() {\r\n        require(productList[id].prodExists == true, \"Invalid product ID.\");\r\n        require(productList[id].balance < productList[id].totalSum, \"The amount was reached, cannot inactivate product!\");\r\n        productList[id].active = false;\r\n        \r\n        uint returnBack = 0;\r\n        uint getFinArrLength = productList[id].finAddr.length;\r\n        if (getFinArrLength != 0){\r\n            for(uint i = 0; i < getFinArrLength; i++){\r\n                returnBack = productList[id].finantare[productList[id].finAddr[i]];\r\n                tokenContract.transferFrom(address(this), productList[id].finAddr[i], returnBack);\r\n                productList[id].balance -= returnBack;\r\n                productList[id].finantare[productList[id].finAddr[i]] = 0;\r\n            }\r\n        }\r\n    }\r\n    \r\n    // only to be called by managers\r\n    //ok\r\n    function managerShowInactiveProductsId() public onlyManager() view returns (uint[] memory) {\r\n        uint[] memory ret = new uint[](prodTotal);\r\n        uint contor = 0;\r\n        for (uint i = 1; i <= prodTotal; i++) {\r\n            if (productList[i].active == false)\r\n                ret[contor] = productList[i].id;\r\n                contor += 1;\r\n        }\r\n        return ret;\r\n    }\r\n    \r\n    // only to be called by managers\r\n    //ok\r\n    function managerShowActiveProductsId() public onlyManager() view returns (uint[] memory) {\r\n        uint[] memory ret = new uint[](prodTotal); \r\n        uint contor = 0;\r\n        for (uint i = 1; i <= prodTotal; i++) {\r\n            if (productList[i].active == true)\r\n                ret[contor] = productList[i].id;\r\n                contor += 1;\r\n        }\r\n        return ret;\r\n    }\r\n    \r\n    // only to be called by managers\r\n    //ok\r\n    function managerShowAllProductsId() public onlyManager() view returns (uint[] memory) {\r\n        uint[] memory ret = new uint[](prodTotal);\r\n        uint contor = 0;\r\n        for (uint i = 1; i <= prodTotal; i++) {\r\n            ret[contor] = productList[i].id;\r\n            contor += 1;\r\n        }\r\n        return ret;\r\n    }\r\n    \r\n    \r\n    \r\n    \r\n    \r\n    \r\n    // only to be called by financier\r\n    function financierContributeToProduct(uint productId, uint tokenAmount) external payable onlyFinancier() {\r\n        require(tokenAmount != 0, \"Please enter a valid amount!\");\r\n        require(productList[productId].prodExists == true, \"Invalid product ID.\");\r\n        require(productList[productId].balance < productList[productId].totalSum, \"Goal reached.\");\r\n        uint check = productList[productId].balance + tokenAmount;\r\n        require(check <= productList[productId].totalSum, \"The amount is too big!\");\r\n        \r\n        //merge pana aici\r\n        uint getFinArrLength = productList[productId].finAddr.length;\r\n        bool checkExistance = false;\r\n        if (getFinArrLength != 0){\r\n            for(uint i = 0; i < getFinArrLength; i++){\r\n                if (productList[productId].finAddr[i] == msg.sender) {\r\n                    checkExistance = true;\r\n                    break;\r\n                }\r\n            }\r\n        }\r\n        \r\n        //scazut tokenamount de la finan?\r\n        if(checkExistance == false){\r\n            productList[productId].finAddr.push(msg.sender);\r\n        }\r\n        tokenContract.transferFrom(msg.sender, owner, tokenAmount);\r\n        productList[productId].balance += tokenAmount;\r\n        productList[productId].finantare[msg.sender] += tokenAmount;\r\n    }\r\n    \r\n    //only to be called by financier\r\n    function financierRetrieveAmount(uint id) public onlyFinancier() {\r\n        require(productList[id].prodExists == true, \"Invalid product ID.\");\r\n        require(productList[id].balance < productList[id].totalSum, \"The amount was reached, cannot inactivate product!\");\r\n        require(productList[id].finantare[msg.sender] > 0, \"You didn't support this project yet.\");\r\n        tokenContract.transferFrom(address(this), msg.sender, productList[id].finantare[msg.sender]);\r\n        productList[id].finantare[msg.sender] = 0;\r\n    }\r\n    \r\n    //only managers and financiers can see\r\n    //ok\r\n    function mfShowUnfinancedActiveProductsId() public view returns (string memory result, uint[] memory) {\r\n        if (bytes(managerList[msg.sender].name).length != 0 || bytes(financierList[msg.sender].name).length != 0){\r\n            uint contor = 0;\r\n            uint[] memory ret = new uint[](prodTotal);\r\n            for (uint i = 1; i <= prodTotal; i++) {\r\n                if (productList[i].active && productList[i].balance < productList[i].totalSum)\r\n                    ret[contor] = productList[i].id;\r\n                    contor += 1;\r\n            }\r\n            return (\"Products ID: \", ret);\r\n        }\r\n        return (\"You must be a manager or a financier.\", new uint[](0));\r\n    }\r\n    \r\n    \r\n    \r\n    \r\n    //only managers, freelancers and evaluators can see\r\n    //ok\r\n    function showFinancedProductsId() public view returns (string memory result, uint[] memory) {\r\n        if (bytes(managerList[msg.sender].name).length != 0 || bytes(freelencerList[msg.sender].name).length != 0 || bytes(evaluatorList[msg.sender].name).length != 0){\r\n            uint[] memory ret = new uint[](prodTotal);\r\n            uint contor = 0;\r\n            for (uint i = 1; i <= prodTotal; i++) {\r\n                if (productList[i].active && productList[i].balance == productList[i].totalSum)\r\n                    ret[contor] = productList[i].id;\r\n                    contor += 1;\r\n            }\r\n            return (\"Products ID: \", ret);\r\n        }\r\n        return (\"You must be a manager, freelancer or a evaluator.\", new uint[](0));\r\n    }\r\n    \r\n    //ok\r\n    function showProductInfo(uint id) public view returns (string memory showDescr, uint showDev, uint showRev, uint showBalance, uint showTotal, string memory showDomain) {\r\n        //uint showId, string memory showDescr, uint showDev, uint showRev, uint showBalance, uint showTotal, string memory showDomain\r\n        //productList[id].id, productList[id].description, productList[id].developingCost, productList[id].evaluatorCompensation, productList[id].balance, productList[id].totalSum, productList[id].expertiseDomain\r\n        require(productList[id].prodExists == true, \"Invalid product ID.\");\r\n        \r\n        if (bytes(managerList[msg.sender].name).length != 0) \r\n            return (productList[id].description, productList[id].developingCost, productList[id].evaluatorCompensation, productList[id].balance, productList[id].totalSum, productList[id].expertiseDomain);\r\n        \r\n        else if ((bytes(freelencerList[msg.sender].name).length != 0 || bytes(evaluatorList[msg.sender].name).length != 0)) {\r\n            require(productList[id].active, \"The product is inactive.\"); \r\n            require(productList[id].balance == productList[id].totalSum, \"The product is either inactive or not financed.\");\r\n            return (productList[id].description, productList[id].developingCost, productList[id].evaluatorCompensation, productList[id].balance, productList[id].totalSum, productList[id].expertiseDomain);\r\n        }\r\n        else if (bytes(financierList[msg.sender].name).length != 0){\r\n            require(productList[id].active, \"The product is inactive.\"); \r\n            require(productList[id].balance < productList[id].totalSum, \"The product is fully financed.\");\r\n            return (productList[id].description, productList[id].developingCost, productList[id].evaluatorCompensation, productList[id].balance, productList[id].totalSum, productList[id].expertiseDomain);\r\n        }\r\n    }\r\n}\r\n//https://ethereum.stackexchange.com/questions/51362/how-to-use-timer-in-escrow\r\n//https://medium.com/coinmonks/testing-time-dependent-logic-in-ethereum-smart-contracts-1b24845c7f72\r\n",
  "sourcePath": "F:/facultate/Blockchain-Proj/marketplace/contracts/Marketplace.sol",
  "compiler": {
    "name": "solc",
    "version": "0.6.2+commit.bacdbe57.Emscripten.clang"
  },
  "schemaVersion": "3.3.3",
  "updatedAt": "2021-01-26T19:03:30.709Z",
  "networkType": "ethereum",
  "devdoc": {
    "methods": {}
  },
  "userdoc": {
    "methods": {}
  }
}