{
  "contractName": "Marketplace",
  "abi": [
    {
      "inputs": [
        {
          "internalType": "contract Token",
          "name": "_tokenContract",
          "type": "address"
        }
      ],
      "stateMutability": "nonpayable",
      "type": "constructor"
    },
    {
      "inputs": [
        {
          "internalType": "address",
          "name": "",
          "type": "address"
        }
      ],
      "name": "evaluatorList",
      "outputs": [
        {
          "internalType": "string",
          "name": "name",
          "type": "string"
        },
        {
          "internalType": "uint256",
          "name": "reputation",
          "type": "uint256"
        },
        {
          "internalType": "string",
          "name": "expertiseDomain",
          "type": "string"
        },
        {
          "internalType": "bool",
          "name": "applied",
          "type": "bool"
        },
        {
          "internalType": "uint256",
          "name": "prodID",
          "type": "uint256"
        }
      ],
      "stateMutability": "view",
      "type": "function",
      "constant": true
    },
    {
      "inputs": [
        {
          "internalType": "address",
          "name": "",
          "type": "address"
        }
      ],
      "name": "financierList",
      "outputs": [
        {
          "internalType": "string",
          "name": "name",
          "type": "string"
        }
      ],
      "stateMutability": "view",
      "type": "function",
      "constant": true
    },
    {
      "inputs": [
        {
          "internalType": "address",
          "name": "",
          "type": "address"
        }
      ],
      "name": "freelencerList",
      "outputs": [
        {
          "internalType": "string",
          "name": "name",
          "type": "string"
        },
        {
          "internalType": "uint256",
          "name": "reputation",
          "type": "uint256"
        },
        {
          "internalType": "string",
          "name": "expertiseDomain",
          "type": "string"
        },
        {
          "internalType": "uint256",
          "name": "contor",
          "type": "uint256"
        }
      ],
      "stateMutability": "view",
      "type": "function",
      "constant": true
    },
    {
      "inputs": [
        {
          "internalType": "address",
          "name": "",
          "type": "address"
        }
      ],
      "name": "managerList",
      "outputs": [
        {
          "internalType": "string",
          "name": "name",
          "type": "string"
        },
        {
          "internalType": "uint256",
          "name": "reputation",
          "type": "uint256"
        }
      ],
      "stateMutability": "view",
      "type": "function",
      "constant": true
    },
    {
      "inputs": [
        {
          "internalType": "uint256",
          "name": "",
          "type": "uint256"
        }
      ],
      "name": "productCheckList",
      "outputs": [
        {
          "internalType": "bool",
          "name": "wasArbitraj",
          "type": "bool"
        },
        {
          "internalType": "bool",
          "name": "arbitraj",
          "type": "bool"
        },
        {
          "internalType": "bool",
          "name": "freelancersWorkIsDone",
          "type": "bool"
        },
        {
          "internalType": "bool",
          "name": "managerAcceptProductResult",
          "type": "bool"
        },
        {
          "internalType": "bool",
          "name": "duringExecution",
          "type": "bool"
        },
        {
          "internalType": "bool",
          "name": "isFinalized",
          "type": "bool"
        }
      ],
      "stateMutability": "view",
      "type": "function",
      "constant": true
    },
    {
      "inputs": [
        {
          "internalType": "uint256",
          "name": "",
          "type": "uint256"
        }
      ],
      "name": "productList",
      "outputs": [
        {
          "internalType": "uint256",
          "name": "id",
          "type": "uint256"
        },
        {
          "internalType": "string",
          "name": "description",
          "type": "string"
        },
        {
          "internalType": "uint256",
          "name": "developingCost",
          "type": "uint256"
        },
        {
          "internalType": "uint256",
          "name": "devRaised",
          "type": "uint256"
        },
        {
          "internalType": "uint256",
          "name": "evaluatorCompensation",
          "type": "uint256"
        },
        {
          "internalType": "uint256",
          "name": "balance",
          "type": "uint256"
        },
        {
          "internalType": "uint256",
          "name": "totalSum",
          "type": "uint256"
        },
        {
          "internalType": "string",
          "name": "expertiseDomain",
          "type": "string"
        },
        {
          "internalType": "bool",
          "name": "active",
          "type": "bool"
        },
        {
          "internalType": "bool",
          "name": "prodExists",
          "type": "bool"
        },
        {
          "internalType": "address",
          "name": "evaluatorAddress",
          "type": "address"
        }
      ],
      "stateMutability": "view",
      "type": "function",
      "constant": true
    },
    {
      "inputs": [
        {
          "internalType": "string",
          "name": "_name",
          "type": "string"
        }
      ],
      "name": "initManager",
      "outputs": [
        {
          "internalType": "bool",
          "name": "success",
          "type": "bool"
        }
      ],
      "stateMutability": "nonpayable",
      "type": "function"
    },
    {
      "inputs": [
        {
          "internalType": "string",
          "name": "_name",
          "type": "string"
        },
        {
          "internalType": "string",
          "name": "_expertiseDomain",
          "type": "string"
        }
      ],
      "name": "initFreelancer",
      "outputs": [
        {
          "internalType": "bool",
          "name": "success",
          "type": "bool"
        }
      ],
      "stateMutability": "nonpayable",
      "type": "function"
    },
    {
      "inputs": [
        {
          "internalType": "string",
          "name": "_name",
          "type": "string"
        },
        {
          "internalType": "string",
          "name": "_expertiseDomain",
          "type": "string"
        }
      ],
      "name": "initEvaluator",
      "outputs": [
        {
          "internalType": "bool",
          "name": "success",
          "type": "bool"
        }
      ],
      "stateMutability": "nonpayable",
      "type": "function"
    },
    {
      "inputs": [
        {
          "internalType": "string",
          "name": "_name",
          "type": "string"
        }
      ],
      "name": "initFinancier",
      "outputs": [
        {
          "internalType": "bool",
          "name": "success",
          "type": "bool"
        }
      ],
      "stateMutability": "nonpayable",
      "type": "function"
    },
    {
      "inputs": [
        {
          "internalType": "string",
          "name": "prodDescription",
          "type": "string"
        },
        {
          "internalType": "uint256",
          "name": "developCost",
          "type": "uint256"
        },
        {
          "internalType": "uint256",
          "name": "evalCompensation",
          "type": "uint256"
        },
        {
          "internalType": "string",
          "name": "domainProd",
          "type": "string"
        }
      ],
      "name": "addProduct",
      "outputs": [],
      "stateMutability": "nonpayable",
      "type": "function"
    },
    {
      "inputs": [
        {
          "internalType": "uint256",
          "name": "id",
          "type": "uint256"
        }
      ],
      "name": "inactivateProduct",
      "outputs": [],
      "stateMutability": "nonpayable",
      "type": "function"
    },
    {
      "inputs": [],
      "name": "managerShowInactiveProductsId",
      "outputs": [
        {
          "internalType": "uint256[]",
          "name": "",
          "type": "uint256[]"
        }
      ],
      "stateMutability": "view",
      "type": "function",
      "constant": true
    },
    {
      "inputs": [],
      "name": "managerShowActiveProductsId",
      "outputs": [
        {
          "internalType": "uint256[]",
          "name": "",
          "type": "uint256[]"
        }
      ],
      "stateMutability": "view",
      "type": "function",
      "constant": true
    },
    {
      "inputs": [],
      "name": "managerShowAllProductsId",
      "outputs": [
        {
          "internalType": "uint256[]",
          "name": "",
          "type": "uint256[]"
        }
      ],
      "stateMutability": "view",
      "type": "function",
      "constant": true
    },
    {
      "inputs": [
        {
          "internalType": "uint256",
          "name": "productId",
          "type": "uint256"
        },
        {
          "internalType": "uint256",
          "name": "tokenAmount",
          "type": "uint256"
        }
      ],
      "name": "financierContributeToProduct",
      "outputs": [],
      "stateMutability": "nonpayable",
      "type": "function"
    },
    {
      "inputs": [
        {
          "internalType": "uint256",
          "name": "id",
          "type": "uint256"
        }
      ],
      "name": "financierRetrieveAmount",
      "outputs": [],
      "stateMutability": "nonpayable",
      "type": "function"
    },
    {
      "inputs": [],
      "name": "mfShowUnfinancedActiveProductsId",
      "outputs": [
        {
          "internalType": "string",
          "name": "result",
          "type": "string"
        },
        {
          "internalType": "uint256[]",
          "name": "",
          "type": "uint256[]"
        }
      ],
      "stateMutability": "view",
      "type": "function",
      "constant": true
    },
    {
      "inputs": [],
      "name": "showFinancedProductsId",
      "outputs": [
        {
          "internalType": "string",
          "name": "result",
          "type": "string"
        },
        {
          "internalType": "uint256[]",
          "name": "",
          "type": "uint256[]"
        }
      ],
      "stateMutability": "view",
      "type": "function",
      "constant": true
    },
    {
      "inputs": [
        {
          "internalType": "uint256",
          "name": "id",
          "type": "uint256"
        }
      ],
      "name": "showProductInfo",
      "outputs": [
        {
          "internalType": "string",
          "name": "showDescr",
          "type": "string"
        },
        {
          "internalType": "uint256",
          "name": "showDev",
          "type": "uint256"
        },
        {
          "internalType": "uint256",
          "name": "showRev",
          "type": "uint256"
        },
        {
          "internalType": "uint256",
          "name": "showBalance",
          "type": "uint256"
        },
        {
          "internalType": "uint256",
          "name": "showTotal",
          "type": "uint256"
        },
        {
          "internalType": "string",
          "name": "showDomain",
          "type": "string"
        }
      ],
      "stateMutability": "view",
      "type": "function",
      "constant": true
    },
    {
      "inputs": [
        {
          "internalType": "uint256",
          "name": "id",
          "type": "uint256"
        }
      ],
      "name": "evaluatorApplyProductId",
      "outputs": [],
      "stateMutability": "nonpayable",
      "type": "function"
    },
    {
      "inputs": [
        {
          "internalType": "uint256",
          "name": "id",
          "type": "uint256"
        },
        {
          "internalType": "uint256",
          "name": "amount",
          "type": "uint256"
        }
      ],
      "name": "freelancerApplyProductId",
      "outputs": [],
      "stateMutability": "nonpayable",
      "type": "function"
    },
    {
      "inputs": [],
      "name": "managerViewFreelancersId",
      "outputs": [
        {
          "internalType": "uint256[]",
          "name": "",
          "type": "uint256[]"
        }
      ],
      "stateMutability": "view",
      "type": "function",
      "constant": true
    },
    {
      "inputs": [
        {
          "internalType": "uint256",
          "name": "id",
          "type": "uint256"
        }
      ],
      "name": "managerShowFreelancersForProjectId",
      "outputs": [
        {
          "internalType": "address[]",
          "name": "",
          "type": "address[]"
        }
      ],
      "stateMutability": "view",
      "type": "function",
      "constant": true
    },
    {
      "inputs": [
        {
          "internalType": "uint256",
          "name": "prodId",
          "type": "uint256"
        },
        {
          "internalType": "address",
          "name": "adr",
          "type": "address"
        }
      ],
      "name": "managerShowFreelancerAddressInfo",
      "outputs": [
        {
          "internalType": "uint256",
          "name": "a",
          "type": "uint256"
        },
        {
          "internalType": "uint256",
          "name": "b",
          "type": "uint256"
        }
      ],
      "stateMutability": "view",
      "type": "function",
      "constant": true
    },
    {
      "inputs": [
        {
          "internalType": "uint256",
          "name": "prodId",
          "type": "uint256"
        },
        {
          "internalType": "address",
          "name": "adr",
          "type": "address"
        }
      ],
      "name": "managerAddFinalFreelancer",
      "outputs": [],
      "stateMutability": "nonpayable",
      "type": "function"
    },
    {
      "inputs": [
        {
          "internalType": "uint256",
          "name": "prodId",
          "type": "uint256"
        }
      ],
      "name": "freelancerMarkProductAsDone",
      "outputs": [],
      "stateMutability": "nonpayable",
      "type": "function"
    },
    {
      "inputs": [
        {
          "internalType": "uint256",
          "name": "prodId",
          "type": "uint256"
        }
      ],
      "name": "managerCheckIfFreelancersWorkIsDone",
      "outputs": [
        {
          "internalType": "bool",
          "name": "",
          "type": "bool"
        }
      ],
      "stateMutability": "view",
      "type": "function",
      "constant": true
    },
    {
      "inputs": [
        {
          "internalType": "uint256",
          "name": "prodId",
          "type": "uint256"
        }
      ],
      "name": "managerAcceptProductResult",
      "outputs": [],
      "stateMutability": "nonpayable",
      "type": "function"
    },
    {
      "inputs": [
        {
          "internalType": "uint256",
          "name": "prodId",
          "type": "uint256"
        }
      ],
      "name": "managerDeclineProductResult",
      "outputs": [],
      "stateMutability": "nonpayable",
      "type": "function"
    },
    {
      "inputs": [
        {
          "internalType": "uint256",
          "name": "prodId",
          "type": "uint256"
        }
      ],
      "name": "evaluatorCheckIfArbitraj",
      "outputs": [
        {
          "internalType": "bool",
          "name": "",
          "type": "bool"
        }
      ],
      "stateMutability": "view",
      "type": "function",
      "constant": true
    },
    {
      "inputs": [
        {
          "internalType": "uint256",
          "name": "prodId",
          "type": "uint256"
        }
      ],
      "name": "evaluatorAcceptProductResult",
      "outputs": [],
      "stateMutability": "nonpayable",
      "type": "function"
    },
    {
      "inputs": [
        {
          "internalType": "uint256",
          "name": "prodId",
          "type": "uint256"
        }
      ],
      "name": "evaluatorDeclineProductResult",
      "outputs": [],
      "stateMutability": "nonpayable",
      "type": "function"
    },
    {
      "inputs": [],
      "name": "balanceOf",
      "outputs": [
        {
          "internalType": "uint256",
          "name": "",
          "type": "uint256"
        }
      ],
      "stateMutability": "view",
      "type": "function",
      "constant": true
    }
  ],
  "bytecode": "0x60806040523480156200001157600080fd5b5060405162005dc738038062005dc7833981810160405260208110156200003757600080fd5b5051600180546001600160a01b03199081163317909155600080546001600160a01b0390931692909116919091178155600255615d4d806200007a6000396000f3fe608060405234801561001057600080fd5b50600436106102065760003560e01c8063528c87d21161011a578063722713f7116100ad578063b0a3f3aa1161007c578063b0a3f3aa14610c70578063c526208214610c8d578063dd26395114610da4578063e88726cf14610ecd578063e8d5ec7114610ff657610206565b8063722713f714610b165780637931471814610b30578063a3f21e5014610b86578063a59be4c714610bcb57610206565b80636c88fedd116100e95780636c88fedd14610a1b5780636c9bc45114610abf5780636dde338c14610adc5780636e487c0914610af957610206565b8063528c87d2146108855780636388201c146109d95780636c03ac75146109f65780636c24f677146109fe57610206565b80632ed56faa1161019d5780633df2b0161161016c5780633df2b0161461077057806341ff4fce1461079357806343890bd6146107b05780634ab5dcd8146107cd57806351520daa1461086857610206565b80632ed56faa146105845780633383de8d1461058c57806338789d3a146105945780633d980b551461065e57610206565b8063143ca6bf116101d9578063143ca6bf14610434578063186870af1461048c57806325ddd059146105445780632d819e541461056157610206565b8063067df98d1461020b5780630e55860d146102395780630e68e77114610356578063120b12ab14610373575b600080fd5b6102376004803603604081101561022157600080fd5b50803590602001356001600160a01b0316610ffe565b005b61025f6004803603602081101561024f57600080fd5b50356001600160a01b03166113d5565b60405180806020018681526020018060200185151515158152602001848152602001838103835288818151815260200191508051906020019080838360005b838110156102b657818101518382015260200161029e565b50505050905090810190601f1680156102e35780820380516001836020036101000a031916815260200191505b50838103825286518152865160209182019188019080838360005b838110156103165781810151838201526020016102fe565b50505050905090810190601f1680156103435780820380516001836020036101000a031916815260200191505b5097505050505050505060405180910390f35b6102376004803603602081101561036c57600080fd5b503561152a565b61037b61176f565b604051808060200180602001838103835285818151815260200191508051906020019080838360005b838110156103bc5781810151838201526020016103a4565b50505050905090810190601f1680156103e95780820380516001836020036101000a031916815260200191505b508381038252845181528451602091820191808701910280838360005b8381101561041e578181015183820152602001610406565b5050505090500194505050505060405180910390f35b61043c6118d7565b60408051602080825283518183015283519192839290830191858101910280838360005b83811015610478578181015183820152602001610460565b505050509050019250505060405180910390f35b610530600480360360208110156104a257600080fd5b810190602081018135600160201b8111156104bc57600080fd5b8201836020820111156104ce57600080fd5b803590602001918460018302840111600160201b831117156104ef57600080fd5b91908080601f0160208091040260200160405190810160405280939291908181526020018383808284376000920191909152509295506119d9945050505050565b604080519115158252519081900360200190f35b6105306004803603602081101561055a57600080fd5b5035611aa0565b6102376004803603604081101561057757600080fd5b5080359060200135611db0565b61037b61216c565b61043c6122fb565b610237600480360360808110156105aa57600080fd5b810190602081018135600160201b8111156105c457600080fd5b8201836020820111156105d657600080fd5b803590602001918460018302840111600160201b831117156105f757600080fd5b919390928235926020810135929190606081019060400135600160201b81111561062057600080fd5b82018360208201111561063257600080fd5b803590602001918460018302840111600160201b8311171561065357600080fd5b5090925090506123d3565b6106846004803603602081101561067457600080fd5b50356001600160a01b031661271e565b604051808060200185815260200180602001848152602001838103835287818151815260200191508051906020019080838360005b838110156106d15781810151838201526020016106b9565b50505050905090810190601f1680156106fe5780820380516001836020036101000a031916815260200191505b50838103825285518152855160209182019187019080838360005b83811015610731578181015183820152602001610719565b50505050905090810190601f16801561075e5780820380516001836020036101000a031916815260200191505b50965050505050505060405180910390f35b6102376004803603604081101561078657600080fd5b5080359060200135612869565b610237600480360360208110156107a957600080fd5b5035612c2a565b610237600480360360208110156107c657600080fd5b5035612f58565b6107f3600480360360208110156107e357600080fd5b50356001600160a01b03166133c8565b6040805160208082528351818301528351919283929083019185019080838360005b8381101561082d578181015183820152602001610815565b50505050905090810190601f16801561085a5780820380516001836020036101000a031916815260200191505b509250505060405180910390f35b6102376004803603602081101561087e57600080fd5b5035613469565b6108a26004803603602081101561089b57600080fd5b50356136d0565b604051808c8152602001806020018b81526020018a8152602001898152602001888152602001878152602001806020018615151515815260200185151515158152602001846001600160a01b03166001600160a01b0316815260200183810383528d818151815260200191508051906020019080838360005b8381101561093357818101518382015260200161091b565b50505050905090810190601f1680156109605780820380516001836020036101000a031916815260200191505b50838103825287518152875160209182019189019080838360005b8381101561099357818101518382015260200161097b565b50505050905090810190601f1680156109c05780820380516001836020036101000a031916815260200191505b509d505050505050505050505050505060405180910390f35b610237600480360360208110156109ef57600080fd5b503561384c565b61043c613ab8565b61043c60048036036020811015610a1457600080fd5b5035613bab565b61053060048036036020811015610a3157600080fd5b810190602081018135600160201b811115610a4b57600080fd5b820183602082011115610a5d57600080fd5b803590602001918460018302840111600160201b83111715610a7e57600080fd5b91908080601f016020809104026020016040519081016040528093929190818152602001838380828437600092019190915250929550613c7d945050505050565b61023760048036036020811015610ad557600080fd5b5035613cca565b61023760048036036020811015610af257600080fd5b50356142fb565b61053060048036036020811015610b0f57600080fd5b5035614659565b610b1e6147e8565b60408051918252519081900360200190f35b610b4d60048036036020811015610b4657600080fd5b5035614865565b604080519615158752941515602087015292151585850152901515606085015215156080840152151560a0830152519081900360c00190f35b610bb260048036036040811015610b9c57600080fd5b50803590602001356001600160a01b03166148aa565b6040805192835260208301919091528051918290030190f35b610bf160048036036020811015610be157600080fd5b50356001600160a01b0316614ab6565b6040518080602001838152602001828103825284818151815260200191508051906020019080838360005b83811015610c34578181015183820152602001610c1c565b50505050905090810190601f168015610c615780820380516001836020036101000a031916815260200191505b50935050505060405180910390f35b61023760048036036020811015610c8657600080fd5b5035614b5d565b610caa60048036036020811015610ca357600080fd5b5035615270565b604051808060200187815260200186815260200185815260200184815260200180602001838103835289818151815260200191508051906020019080838360005b83811015610d03578181015183820152602001610ceb565b50505050905090810190601f168015610d305780820380516001836020036101000a031916815260200191505b50838103825284518152845160209182019186019080838360005b83811015610d63578181015183820152602001610d4b565b50505050905090810190601f168015610d905780820380516001836020036101000a031916815260200191505b509850505050505050505060405180910390f35b61053060048036036040811015610dba57600080fd5b810190602081018135600160201b811115610dd457600080fd5b820183602082011115610de657600080fd5b803590602001918460018302840111600160201b83111715610e0757600080fd5b91908080601f0160208091040260200160405190810160405280939291908181526020018383808284376000920191909152509295949360208101935035915050600160201b811115610e5957600080fd5b820183602082011115610e6b57600080fd5b803590602001918460018302840111600160201b83111715610e8c57600080fd5b91908080601f0160208091040260200160405190810160405280939291908181526020018383808284376000920191909152509295506156d9945050505050565b61053060048036036040811015610ee357600080fd5b810190602081018135600160201b811115610efd57600080fd5b820183602082011115610f0f57600080fd5b803590602001918460018302840111600160201b83111715610f3057600080fd5b91908080601f0160208091040260200160405190810160405280939291908181526020018383808284376000920191909152509295949360208101935035915050600160201b811115610f8257600080fd5b820183602082011115610f9457600080fd5b803590602001918460018302840111600160201b83111715610fb557600080fd5b91908080601f016020809104026020016040519081016040528093929190818152602001838380828437600092019190915250929550615775945050505050565b61043c615846565b3360009081526003602052604090205460026000196101006001841615020190911604611060576040805162461bcd60e51b81526020600482015260156024820152600080516020615ca1833981519152604482015290519081900360640190fd5b60008281526007602052604090206008015460ff6101009091041615156001146110bf576040805162461bcd60e51b81526020600482015260136024820152600080516020615a91833981519152604482015290519081900360640190fd5b60008281526007602052604090206008015460ff161515600114611118576040805162461bcd60e51b81526020600482015260186024820152600080516020615b4e833981519152604482015290519081900360640190fd5b6000828152600760205260409020600681015460059091015414611171576040805162461bcd60e51b815260206004820152601c6024820152600080516020615c81833981519152604482015290519081900360640190fd5b60008281526007602090815260408083206001600160a01b0385168452600b019091529020546111d25760405162461bcd60e51b8152600401808060200182810382526032815260200180615afb6032913960400191505060405180910390fd5b600082815260076020818152604080842060028101546001600160a01b0387168652600b820184529185205494879052929091526003909101549091011115611262576040805162461bcd60e51b815260206004820152601760248201527f54686520616d6f756e7420697320746f6f206d7563682e000000000000000000604482015290519081900360640190fd5b600082815260086020526040902054600160201b900460ff16156112b75760405162461bcd60e51b8152600401808060200182810382526021815260200180615b2d6021913960400191505060405180910390fd5b6000805b6000848152600760205260409020600d0154811015611329576000848152600760205260409020600d0180546001600160a01b0385169190839081106112fd57fe5b6000918252602090912001546001600160a01b031614156113215760019150611329565b6001016112bb565b508061136a5760008381526007602090815260408220600d01805460018101825590835291200180546001600160a01b0319166001600160a01b0384161790555b60008381526007602081815260408084206001600160a01b0387168552600b810183529084205493879052919052600381018054909201918290556002015414156113d0576000838152600860205260409020805464ff000000001916600160201b1790555b505050565b60056020908152600091825260409182902080548351601f6002600019610100600186161502019093169290920491820184900484028101840190945280845290929183919083018282801561146c5780601f106114415761010080835404028352916020019161146c565b820191906000526020600020905b81548152906001019060200180831161144f57829003601f168201915b505050505090806001015490806002018054600181600116156101000203166002900480601f0160208091040260200160405190810160405280929190818152602001828054600181600116156101000203166002900480156115105780601f106114e557610100808354040283529160200191611510565b820191906000526020600020905b8154815290600101906020018083116114f357829003601f168201915b505050506003830154600490930154919260ff1691905085565b3360009081526006602052604090205460026000196101006001841615020190911604611598576040805162461bcd60e51b81526020600482015260176024820152762cb7ba9030b932903737ba1030903334b730b731b4b2b960491b604482015290519081900360640190fd5b60008181526007602052604090206008015460ff6101009091041615156001146115f7576040805162461bcd60e51b81526020600482015260136024820152600080516020615a91833981519152604482015290519081900360640190fd5b600081815260076020526040902060068101546005909101541061164c5760405162461bcd60e51b8152600401808060200182810382526032815260200180615cc16032913960400191505060405180910390fd5b60008181526007602090815260408083203384526009019091529020546116a45760405162461bcd60e51b8152600401808060200182810382526024815260200180615ab16024913960400191505060405180910390fd5b60008054828252600760209081526040808420338086526009909101835281852054825163a9059cbb60e01b81526004810192909252602482015290516001600160a01b039093169363a9059cbb93604480840194939192918390030190829087803b15801561171357600080fd5b505af1158015611727573d6000803e3d6000fd5b505050506040513d602081101561173d57600080fd5b505060009081526007602090815260408083203384526009810190925282208054600590920180549290920390915555565b336000908152600360205260409020546060908190600260001961010060018416150201909116041515806117c55750336000908152600660205260409020546002600019610100600184161502019091160415155b156118ae57600080905060606002546040519080825280602002602001820160405280156117fd578160200160208202803883390190505b50905060015b600254811161187e5760008181526007602052604090206008015460ff168015611843575060008181526007602052604090206006810154600590910154105b1561187257600081815260076020526040902054825183908590811061186557fe5b6020026020010181815250505b60019283019201611803565b5060408051808201909152600d81526c0283937b23ab1ba399024a21d1609d1b6020820152935091506118d39050565b60408051600081526080810182526025602082018181529192615cf390840139925090505b9091565b336000908152600360205260409020546060906002600019610100600184161502019091160461193c576040805162461bcd60e51b81526020600482015260156024820152600080516020615ca1833981519152604482015290519081900360640190fd5b606060025460405190808252806020026020018201604052801561196a578160200160208202803883390190505b509050600060015b60025481116119d05760008181526007602052604090206008015460ff161515600114156119c45760008181526007602052604090205483518490849081106119b757fe5b6020026020010181815250505b60019182019101611972565b50909150505b90565b60008054600154604080516323b872dd60e01b81526001600160a01b039283166004820152336024820152600a6044820152905191909216916323b872dd91606480830192602092919082900301818787803b158015611a3857600080fd5b505af1158015611a4c573d6000803e3d6000fd5b505050506040513d6020811015611a6257600080fd5b5050604080516020818101835284825233600090815260068252929092208151805192939192611a959284920190615939565b506001949350505050565b3360009081526005602052604081205460026000196101006001841615020190911604611b0e576040805162461bcd60e51b81526020600482015260176024820152762cb7ba9030b932903737ba10309032bb30b63ab0ba37b960491b604482015290519081900360640190fd5b336000908152600560205260409020600401548214611b5e5760405162461bcd60e51b8152600401808060200182810382526023815260200180615b6e6023913960400191505060405180910390fd5b60008281526007602052604090206008015460ff610100909104161515600114611bbd576040805162461bcd60e51b81526020600482015260136024820152600080516020615a91833981519152604482015290519081900360640190fd5b60008281526007602052604090206008015460ff161515600114611c16576040805162461bcd60e51b81526020600482015260186024820152600080516020615b4e833981519152604482015290519081900360640190fd5b6000828152600760205260409020600681015460059091015414611c6f576040805162461bcd60e51b815260206004820152601c6024820152600080516020615c81833981519152604482015290519081900360640190fd5b60008281526008602052604090205462010000900460ff161515600114611cdd576040805162461bcd60e51b815260206004820152601d60248201527f467265656c616e6365727320776f726b206973206e6f7420646f6e652e000000604482015290519081900360640190fd5b6000828152600860205260409020546301000000900460ff1615611d325760405162461bcd60e51b8152600401808060200182810382526026815260200180615ad56026913960400191505060405180910390fd5b600082815260086020526040902054600160281b900460ff1615611d95576040805162461bcd60e51b8152602060048201526015602482015274283937b23ab1ba1034b9903334b730b634bd32b21760591b604482015290519081900360640190fd5b50600090815260086020526040902054610100900460ff1690565b3360009081526006602052604090205460026000196101006001841615020190911604611e1e576040805162461bcd60e51b81526020600482015260176024820152762cb7ba9030b932903737ba1030903334b730b731b4b2b960491b604482015290519081900360640190fd5b80611e70576040805162461bcd60e51b815260206004820152601c60248201527f506c6561736520656e74657220612076616c696420616d6f756e742100000000604482015290519081900360640190fd5b60008281526007602052604090206008015460ff610100909104161515600114611ecf576040805162461bcd60e51b81526020600482015260136024820152600080516020615a91833981519152604482015290519081900360640190fd5b6000828152600760205260409020600681015460059091015410611f2a576040805162461bcd60e51b815260206004820152600d60248201526c23b7b0b6103932b0b1b432b21760991b604482015290519081900360640190fd5b60008281526007602052604090206008015460ff161515600114611f95576040805162461bcd60e51b815260206004820152601a60248201527f5468652070726f64756374206973206e6f742061637469766521000000000000604482015290519081900360640190fd5b6000828152600760205260409020600681015460059091015482011115611ffc576040805162461bcd60e51b815260206004820152601660248201527554686520616d6f756e7420697320746f6f206269672160501b604482015290519081900360640190fd5b6000828152600760205260408120600a01541561207d5760005b6000848152600760205260409020600a015481101561207b576000848152600760205260409020600a0180543391908390811061204f57fe5b6000918252602090912001546001600160a01b03161415612073576001915061207b565b600101612016565b505b806120b45760008381526007602090815260408220600a01805460018101825590835291200180546001600160a01b031916331790555b60008054604080516323b872dd60e01b81523360048201523060248201526044810186905290516001600160a01b03909216926323b872dd926064808401936020939083900390910190829087803b15801561210f57600080fd5b505af1158015612123573d6000803e3d6000fd5b505050506040513d602081101561213957600080fd5b50505060009182526007602090815260408084206005810180548501905533855260090190915290912080549091019055565b336000908152600360205260409020546060908190600260001961010060018416150201909116041515806121c25750336000908152600460205260409020546002600019610100600184161502019091160415155b806121ee5750336000908152600560205260409020546002600019610100600184161502019091160415155b156122d3576060600254604051908082528060200260200182016040528015612221578160200160208202803883390190505b509050600060015b60025481116122a45760008181526007602052604090206008015460ff168015612269575060008181526007602052604090206006810154600590910154145b1561229857600081815260076020526040902054835184908490811061228b57fe5b6020026020010181815250505b60019182019101612229565b505060408051808201909152600d81526c0283937b23ab1ba399024a21d1609d1b6020820152925090506118d3565b60408051600081526080810182526031602082018181529192615c5090840139925090509091565b3360009081526003602052604090205460609060026000196101006001841615020190911604612360576040805162461bcd60e51b81526020600482015260156024820152600080516020615ca1833981519152604482015290519081900360640190fd5b606060025460405190808252806020026020018201604052801561238e578160200160208202803883390190505b509050600060015b60025481116119d05760008181526007602052604090205483518490849081106123bc57fe5b602090810291909101015260019182019101612396565b3360009081526003602052604090205460026000196101006001841615020190911604612435576040805162461bcd60e51b81526020600482015260156024820152600080516020615ca1833981519152604482015290519081900360640190fd5b6002805460010190819055604080516101c08101825291825280516020601f890181900481028201810190925287815281830191899089908190840183828082843760009201829052509385525050506020808301889052604080840183905260608401889052608084019290925286880160a08401528151601f860182900482028101820190925284825260c0909201918590859081908401838280828437600092018290525093855250506001602080850182905260408086018390528051858152808301825260608701528051858152808301825260808701528051858152808301825260a087015260c09095018490526002548452600781529390922084518155848401518051919461255194860193500190615939565b5060408201516002820155606082015160038201556080820151600482015560a0820151600582015560c0820151600682015560e0820151805161259f916007840191602090910190615939565b506101008281015160088301805461012086015160ff199091169215159290921761ff00191691151590920217905561014082015180516125ea91600a8401916020909101906159b7565b50610160820151805161260791600c8401916020909101906159b7565b50610180820151805161262491600d8401916020909101906159b7565b506101a09190910151600e90910180546001600160a01b0319166001600160a01b0390921691909117905550506040805160c08101825260008082526020808301828152838501838152606085018481526080860185815260a087018681526002548752600890955296909420945185549251915194519651935160ff199093169015151761ff001916610100911515919091021762ff0000191662010000931515939093029290921763ff00000019166301000000941515949094029390931764ff000000001916600160201b931515939093029290921765ff00000000001916600160281b9215159290920291909117905550505050565b60046020908152600091825260409182902080548351601f600260001961010060018616150201909316929092049182018490048402810184019094528084529092918391908301828280156127b55780601f1061278a576101008083540402835291602001916127b5565b820191906000526020600020905b81548152906001019060200180831161279857829003601f168201915b505050505090806001015490806002018054600181600116156101000203166002900480601f0160208091040260200160405190810160405280929190818152602001828054600181600116156101000203166002900480156128595780601f1061282e57610100808354040283529160200191612859565b820191906000526020600020905b81548152906001019060200180831161283c57829003601f168201915b5050505050908060030154905084565b33600090815260046020526040902054600260001961010060018416150201909116046128d8576040805162461bcd60e51b81526020600482015260186024820152772cb7ba9030b932903737ba103090333932b2b630b731b2b960411b604482015290519081900360640190fd5b60008281526007602052604090206008015460ff610100909104161515600114612937576040805162461bcd60e51b81526020600482015260136024820152600080516020615a91833981519152604482015290519081900360640190fd5b60008281526007602052604090206008015460ff1661298b576040805162461bcd60e51b81526020600482015260186024820152600080516020615b4e833981519152604482015290519081900360640190fd5b60008281526007602052604090206006810154600590910154146129e4576040805162461bcd60e51b815260206004820152601c6024820152600080516020615c81833981519152604482015290519081900360640190fd5b600082815260076020526040902060020154811115612a43576040805162461bcd60e51b81526020600482015260166024820152752a34329030b6b7bab73a1034b9903a37b7903134b39760511b604482015290519081900360640190fd5b60046000336001600160a01b03166001600160a01b031681526020019081526020016000206002016040518082805460018160011615610100020316600290048015612ac65780601f10612aa4576101008083540402835291820191612ac6565b820191906000526020600020905b815481529060010190602001808311612ab2575b50509150506040518091039020600760008481526020019081526020016000206007016040518082805460018160011615610100020316600290048015612b445780601f10612b22576101008083540402835291820191612b44565b820191906000526020600020905b815481529060010190602001808311612b30575b5050915050604051809103902014612b8d5760405162461bcd60e51b815260040180806020018281038252602f815260200180615b91602f913960400191505060405180910390fd5b33600090815260046020526040902060038101805460010190819055600590910180548492908110612bbb57fe5b60009182526020808320909101929092553380825260048084526040808420968452950183528482208490556007808452858320828452600b8101855295832094909455928252600c9093018054600181018255908452922090910180546001600160a01b0319169091179055565b3360009081526003602052604090205460026000196101006001841615020190911604612c8c576040805162461bcd60e51b81526020600482015260156024820152600080516020615ca1833981519152604482015290519081900360640190fd5b60008181526007602052604090206008015460ff610100909104161515600114612ceb576040805162461bcd60e51b81526020600482015260136024820152600080516020615a91833981519152604482015290519081900360640190fd5b6000818152600760205260409020600681015460059091015410612d405760405162461bcd60e51b8152600401808060200182810382526032815260200180615cc16032913960400191505060405180910390fd5b600081815260076020526040902060088101805460ff19169055600a015415612f555760005b6000828152600760205260409020600a0154811015612f53576000805483825260076020526040909120600a0180546001600160a01b039092169163a9059cbb919084908110612db257fe5b6000918252602080832090910154868352600790915260408220600a810180546001600160a01b039093169360099092019287908110612dee57fe5b9060005260206000200160009054906101000a90046001600160a01b03166001600160a01b03166001600160a01b03168152602001908152602001600020546040518363ffffffff1660e01b815260040180836001600160a01b03166001600160a01b0316815260200182815260200192505050602060405180830381600087803b158015612e7c57600080fd5b505af1158015612e90573d6000803e3d6000fd5b505050506040513d6020811015612ea657600080fd5b50506000828152600760205260408120600a810180546009909201929184908110612ecd57fe5b60009182526020808320909101546001600160a01b03168352828101939093526040918201812054858252600790935290812060058101805493909303909255600a8201805491926009019183919085908110612f2657fe5b60009182526020808320909101546001600160a01b03168352820192909252604001902055600101612d66565b505b50565b3360009081526003602052604090205460026000196101006001841615020190911604612fba576040805162461bcd60e51b81526020600482015260156024820152600080516020615ca1833981519152604482015290519081900360640190fd5b33600090815260056020526040902060040154811461300a5760405162461bcd60e51b8152600401808060200182810382526023815260200180615b6e6023913960400191505060405180910390fd5b60008181526007602052604090206008015460ff610100909104161515600114613069576040805162461bcd60e51b81526020600482015260136024820152600080516020615a91833981519152604482015290519081900360640190fd5b60008181526007602052604090206008015460ff1615156001146130c2576040805162461bcd60e51b81526020600482015260186024820152600080516020615b4e833981519152604482015290519081900360640190fd5b600081815260076020526040902060068101546005909101541461311b576040805162461bcd60e51b815260206004820152601c6024820152600080516020615c81833981519152604482015290519081900360640190fd5b60008181526008602052604090205462010000900460ff1615156001146131735760405162461bcd60e51b8152600401808060200182810382526021815260200180615bc06021913960400191505060405180910390fd5b60008181526008602052604090205460ff6101009091041615156001146131dc576040805162461bcd60e51b815260206004820152601860248201527720b93134ba3930b5103237b2b9903737ba1032bc34b9ba1760411b604482015290519081900360640190fd5b6000818152600860205260409020546301000000900460ff16156132315760405162461bcd60e51b8152600401808060200182810382526026815260200180615ad56026913960400191505060405180910390fd5b600081815260086020526040902054600160281b900460ff1615613294576040805162461bcd60e51b8152602060048201526015602482015274283937b23ab1ba1034b9903334b730b634bd32b21760591b604482015290519081900360640190fd5b6000818152600860208181526040808420805464ffffffff001916815560078352908420600301849055919052805462ff0000191690555b6000828152600760205260409020600d01548110156133995760016004600060076000868152602001908152602001600020600d01848154811061330c57fe5b60009182526020808320909101546001600160a01b0316835282019290925260400190206001015411156133915760016004600060076000868152602001908152602001600020600d01848154811061336157fe5b60009182526020808320909101546001600160a01b03168352820192909252604001902060010180549190910390555b6001016132cc565b50604080516000808252602080830180855285835260079091529290209051612f5392600d90920191906159b7565b60066020908152600091825260409182902080548351601f6002600019610100600186161502019093169290920491820184900484028101840190945280845290929183919083018282801561345f5780601f106134345761010080835404028352916020019161345f565b820191906000526020600020905b81548152906001019060200180831161344257829003601f168201915b5050505050905081565b33600090815260036020526040902054600260001961010060018416150201909116046134cb576040805162461bcd60e51b81526020600482015260156024820152600080516020615ca1833981519152604482015290519081900360640190fd5b60008181526007602052604090206008015460ff61010090910416151560011461352a576040805162461bcd60e51b81526020600482015260136024820152600080516020615a91833981519152604482015290519081900360640190fd5b60008181526007602052604090206008015460ff161515600114613583576040805162461bcd60e51b81526020600482015260186024820152600080516020615b4e833981519152604482015290519081900360640190fd5b60008181526007602052604090206006810154600590910154146135dc576040805162461bcd60e51b815260206004820152601c6024820152600080516020615c81833981519152604482015290519081900360640190fd5b60008181526008602052604090205462010000900460ff1615156001146136345760405162461bcd60e51b8152600401808060200182810382526021815260200180615bc06021913960400191505060405180910390fd5b600081815260086020526040902054610100900460ff1615613690576040805162461bcd60e51b815260206004820152601060248201526f20b93134ba3930b51032bc34b9ba399760811b604482015290519081900360640190fd5b6000818152600860205260409020805461ff001916610100179081905560ff16612f55576000818152600860205260409020805460ff1916600117905550565b6007602090815260009182526040918290208054600180830180548651600293821615610100026000190190911692909204601f81018690048602830186019096528582529194929390929083018282801561376d5780601f106137425761010080835404028352916020019161376d565b820191906000526020600020905b81548152906001019060200180831161375057829003601f168201915b505050600280850154600386015460048701546005880154600689015460078a018054604080516020601f600019610100600187161502019094169a909a049283018a90048a0281018a019091528181529a9b969a959950939750919590949392908301828280156138205780601f106137f557610100808354040283529160200191613820565b820191906000526020600020905b81548152906001019060200180831161380357829003601f168201915b505050506008830154600e90930154919260ff808216936101009092041691506001600160a01b03168b565b33600090815260046020526040902054600260001961010060018416150201909116046138bb576040805162461bcd60e51b81526020600482015260186024820152772cb7ba9030b932903737ba103090333932b2b630b731b2b960411b604482015290519081900360640190fd5b60008181526007602052604090206008015460ff61010090910416151560011461391a576040805162461bcd60e51b81526020600482015260136024820152600080516020615a91833981519152604482015290519081900360640190fd5b60008181526007602052604090206008015460ff161515600114613973576040805162461bcd60e51b81526020600482015260186024820152600080516020615b4e833981519152604482015290519081900360640190fd5b60008181526007602052604090206006810154600590910154146139cc576040805162461bcd60e51b815260206004820152601c6024820152600080516020615c81833981519152604482015290519081900360640190fd5b600081815260086020526040902054600160201b900460ff161515600114613a3b576040805162461bcd60e51b815260206004820181905260248201527f5468652070726f64756374206973206e6f7420696e20657865637574696f6e2e604482015290519081900360640190fd5b60005b6000828152600760205260409020600d0154811015612f53576000828152600760205260409020600d01805433919083908110613a7757fe5b6000918252602090912001546001600160a01b03161415613ab0576000828152600860205260409020805462ff00001916620100001790555b600101613a3e565b3360009081526003602052604090205460609060026000196101006001841615020190911604613b1d576040805162461bcd60e51b81526020600482015260156024820152600080516020615ca1833981519152604482015290519081900360640190fd5b6060600254604051908082528060200260200182016040528015613b4b578160200160208202803883390190505b509050600060015b60025481116119d05760008181526007602052604090206008015460ff16613b9f576000818152600760205260409020548351849084908110613b9257fe5b6020026020010181815250505b60019182019101613b53565b3360009081526003602052604090205460609060026000196101006001841615020190911604613c10576040805162461bcd60e51b81526020600482015260156024820152600080516020615ca1833981519152604482015290519081900360640190fd5b600082815260076020908152604091829020600c0180548351818402810184019094528084529091830182828015613c7157602002820191906000526020600020905b81546001600160a01b03168152600190910190602001808311613c53575b50505050509050919050565b604080518082018252828152600560208083019190915233600090815260038252928320825180519192613cb692849290910190615939565b506020919091015160019182015592915050565b3360009081526003602052604090205460026000196101006001841615020190911604613d2c576040805162461bcd60e51b81526020600482015260156024820152600080516020615ca1833981519152604482015290519081900360640190fd5b60008181526007602052604090206008015460ff610100909104161515600114613d8b576040805162461bcd60e51b81526020600482015260136024820152600080516020615a91833981519152604482015290519081900360640190fd5b60008181526007602052604090206008015460ff161515600114613de4576040805162461bcd60e51b81526020600482015260186024820152600080516020615b4e833981519152604482015290519081900360640190fd5b6000818152600760205260409020600681015460059091015414613e3d576040805162461bcd60e51b815260206004820152601c6024820152600080516020615c81833981519152604482015290519081900360640190fd5b60008181526008602052604090205462010000900460ff161515600114613e955760405162461bcd60e51b8152600401808060200182810382526021815260200180615bc06021913960400191505060405180910390fd5b6000818152600860205260408120805463ff000000191663010000001790555b6000828152600760205260409020600d0154811015614157576000805483825260076020526040909120600d0180546001600160a01b039092169163a9059cbb919084908110613f0157fe5b6000918252602080832090910154868352600790915260408220600d810180546001600160a01b0390931693600b9092019287908110613f3d57fe5b9060005260206000200160009054906101000a90046001600160a01b03166001600160a01b03166001600160a01b03168152602001908152602001600020546040518363ffffffff1660e01b815260040180836001600160a01b03166001600160a01b0316815260200182815260200192505050602060405180830381600087803b158015613fcb57600080fd5b505af1158015613fdf573d6000803e3d6000fd5b505050506040513d6020811015613ff557600080fd5b50506000828152600760205260408120600d81018054600b90920192918490811061401c57fe5b60009182526020808320909101546001600160a01b03168352828101939093526040918201812054858252600790935290812060038101805493909303909255600d82018054600b909301928490811061407257fe5b60009182526020808320909101546001600160a01b03168352828101939093526040918201812054858252600790935290812060058101805493909303909255600d9091018054600a926004929091859081106140cb57fe5b60009182526020808320909101546001600160a01b03168352820192909252604001902060010154101561414f5760016004600060076000868152602001908152602001600020600d01848154811061412057fe5b60009182526020808320909101546001600160a01b031683528201929092526040019020600101805490910190555b600101613eb5565b5060008181526007602090815260408083206008908101805460ff191690559091529020805465ffff000000001916600160281b179081905560ff16614264576000805482825260076020908152604080842060050154815163a9059cbb60e01b8152336004820152602481019190915290516001600160a01b039093169363a9059cbb93604480840194939192918390030190829087803b1580156141fc57600080fd5b505af1158015614210573d6000803e3d6000fd5b505050506040513d602081101561422657600080fd5b505033600090815260036020526040902060010154600a111561425f573360009081526003602052604090206001908101805490910190555b612f55565b60008054828252600760209081526040808420600e810154600491820154835163a9059cbb60e01b81526001600160a01b039283169381019390935260248301529151919093169363a9059cbb936044808201949392918390030190829087803b1580156142d157600080fd5b505af11580156142e5573d6000803e3d6000fd5b505050506040513d60208110156113d057600080fd5b3360009081526005602052604090205460026000196101006001841615020190911604614369576040805162461bcd60e51b81526020600482015260176024820152762cb7ba9030b932903737ba10309032bb30b63ab0ba37b960491b604482015290519081900360640190fd5b60008181526007602052604090206008015460ff6101009091041615156001146143c8576040805162461bcd60e51b81526020600482015260136024820152600080516020615a91833981519152604482015290519081900360640190fd5b60008181526007602052604090206008015460ff1661441c576040805162461bcd60e51b81526020600482015260186024820152600080516020615b4e833981519152604482015290519081900360640190fd5b6000818152600760205260409020600681015460059091015414614475576040805162461bcd60e51b815260206004820152601c6024820152600080516020615c81833981519152604482015290519081900360640190fd5b3360009081526005602052604090206003015460ff16156144c75760405162461bcd60e51b8152600401808060200182810382526025815260200180615be16025913960400191505060405180910390fd5b60056000336001600160a01b03166001600160a01b03168152602001908152602001600020600201604051808280546001816001161561010002031660029004801561454a5780601f1061452857610100808354040283529182019161454a565b820191906000526020600020905b815481529060010190602001808311614536575b505091505060405180910390206007600083815260200190815260200160002060070160405180828054600181600116156101000203166002900480156145c85780601f106145a65761010080835404028352918201916145c8565b820191906000526020600020905b8154815290600101906020018083116145b4575b50509150506040518091039020146146115760405162461bcd60e51b815260040180806020018281038252604a815260200180615c06604a913960600191505060405180910390fd5b33600081815260056020908152604080832060048101869055600301805460ff191660011790559382526007905291909120600e0180546001600160a01b0319169091179055565b33600090815260036020526040812054600260001961010060018416150201909116046146bb576040805162461bcd60e51b81526020600482015260156024820152600080516020615ca1833981519152604482015290519081900360640190fd5b60008281526007602052604090206008015460ff61010090910416151560011461471a576040805162461bcd60e51b81526020600482015260136024820152600080516020615a91833981519152604482015290519081900360640190fd5b60008281526007602052604090206008015460ff161515600114614773576040805162461bcd60e51b81526020600482015260186024820152600080516020615b4e833981519152604482015290519081900360640190fd5b60008281526007602052604090206006810154600590910154146147cc576040805162461bcd60e51b815260206004820152601c6024820152600080516020615c81833981519152604482015290519081900360640190fd5b5060009081526008602052604090205462010000900460ff1690565b60008054604080516370a0823160e01b815233600482015290516001600160a01b03909216916370a0823191602480820192602092909190829003018186803b15801561483457600080fd5b505afa158015614848573d6000803e3d6000fd5b505050506040513d602081101561485e57600080fd5b5051905090565b60086020526000908152604090205460ff80821691610100810482169162010000820481169163010000008104821691600160201b8204811691600160281b90041686565b3360009081526003602052604081205481906002600019610100600184161502019091160461490e576040805162461bcd60e51b81526020600482015260156024820152600080516020615ca1833981519152604482015290519081900360640190fd5b60008481526007602052604090206008015460ff61010090910416151560011461496d576040805162461bcd60e51b81526020600482015260136024820152600080516020615a91833981519152604482015290519081900360640190fd5b60008481526007602052604090206008015460ff166149c1576040805162461bcd60e51b81526020600482015260186024820152600080516020615b4e833981519152604482015290519081900360640190fd5b6000848152600760205260409020600681015460059091015414614a1a576040805162461bcd60e51b815260206004820152601c6024820152600080516020615c81833981519152604482015290519081900360640190fd5b60008481526007602090815260408083206001600160a01b0387168452600b01909152902054614a7b5760405162461bcd60e51b8152600401808060200182810382526032815260200180615afb6032913960400191505060405180910390fd5b505060008281526007602090815260408083206001600160a01b0385168452600b018252808320546004909252909120600101549250929050565b60036020908152600091825260409182902080548351601f60026000196101006001861615020190931692909204918201849004840281018401909452808452909291839190830182828015614b4d5780601f10614b2257610100808354040283529160200191614b4d565b820191906000526020600020905b815481529060010190602001808311614b3057829003601f168201915b5050505050908060010154905082565b3360009081526005602052604090205460026000196101006001841615020190911604614bcb576040805162461bcd60e51b81526020600482015260176024820152762cb7ba9030b932903737ba10309032bb30b63ab0ba37b960491b604482015290519081900360640190fd5b336000908152600560205260409020600401548114614c1b5760405162461bcd60e51b8152600401808060200182810382526023815260200180615b6e6023913960400191505060405180910390fd5b60008181526007602052604090206008015460ff610100909104161515600114614c7a576040805162461bcd60e51b81526020600482015260136024820152600080516020615a91833981519152604482015290519081900360640190fd5b60008181526007602052604090206008015460ff161515600114614cd3576040805162461bcd60e51b81526020600482015260186024820152600080516020615b4e833981519152604482015290519081900360640190fd5b6000818152600760205260409020600681015460059091015414614d2c576040805162461bcd60e51b815260206004820152601c6024820152600080516020615c81833981519152604482015290519081900360640190fd5b60008181526008602052604090205462010000900460ff161515600114614d845760405162461bcd60e51b8152600401808060200182810382526021815260200180615bc06021913960400191505060405180910390fd5b60008181526008602052604090205460ff610100909104161515600114614ded576040805162461bcd60e51b815260206004820152601860248201527720b93134ba3930b5103237b2b9903737ba1032bc34b9ba1760411b604482015290519081900360640190fd5b6000818152600860205260409020546301000000900460ff1615614e425760405162461bcd60e51b8152600401808060200182810382526026815260200180615ad56026913960400191505060405180910390fd5b600081815260086020526040902054600160281b900460ff1615614ea5576040805162461bcd60e51b8152602060048201526015602482015274283937b23ab1ba1034b9903334b730b634bd32b21760591b604482015290519081900360640190fd5b60005b6000828152600760205260409020600d015481101561514a576000805483825260076020526040909120600d0180546001600160a01b039092169163a9059cbb919084908110614ef457fe5b6000918252602080832090910154868352600790915260408220600d810180546001600160a01b0390931693600b9092019287908110614f3057fe5b9060005260206000200160009054906101000a90046001600160a01b03166001600160a01b03166001600160a01b03168152602001908152602001600020546040518363ffffffff1660e01b815260040180836001600160a01b03166001600160a01b0316815260200182815260200192505050602060405180830381600087803b158015614fbe57600080fd5b505af1158015614fd2573d6000803e3d6000fd5b505050506040513d6020811015614fe857600080fd5b50506000828152600760205260408120600d81018054600b90920192918490811061500f57fe5b60009182526020808320909101546001600160a01b03168352828101939093526040918201812054858252600790935290812060038101805493909303909255600d82018054600b909301928490811061506557fe5b60009182526020808320909101546001600160a01b03168352828101939093526040918201812054858252600790935290812060058101805493909303909255600d9091018054600a926004929091859081106150be57fe5b60009182526020808320909101546001600160a01b0316835282019290925260400190206001015410156151425760016004600060076000868152602001908152602001600020600d01848154811061511357fe5b60009182526020808320909101546001600160a01b031683528201929092526040019020600101805490910190555b600101614ea8565b5060008181526007602090815260408083206008908101805460ff191690558252808320805461ff001965ffff0000000019909116600160281b171690553383526003909152902060019081015411156151b95733600090815260036020526040902060010180546000190190555b60008054828252600760209081526040808420600490810154825163a9059cbb60e01b81523392810192909252602482015290516001600160a01b039093169363a9059cbb93604480840194939192918390030190829087803b15801561521f57600080fd5b505af1158015615233573d6000803e3d6000fd5b505050506040513d602081101561524957600080fd5b50503360009081526005602052604081206004810191909155600301805460ff1916905550565b60008181526007602052604081206008015460609190819081908190859060ff6101009091041615156001146152db576040805162461bcd60e51b81526020600482015260136024820152600080516020615a91833981519152604482015290519081900360640190fd5b33600090815260036020526040902054600260001961010060018416150201909116041561545d57600087815260076020818152604092839020600280820154600483015460058401546006850154600180870180548b519281161561010002600019011696909604601f8101899004890282018901909a528981529498939792969195909492019288918301828280156153b75780601f1061538c576101008083540402835291602001916153b7565b820191906000526020600020905b81548152906001019060200180831161539a57829003601f168201915b5050845460408051602060026001851615610100026000190190941693909304601f8101849004840282018401909252818152959b50869450925084019050828280156154455780601f1061541a57610100808354040283529160200191615445565b820191906000526020600020905b81548152906001019060200180831161542857829003601f168201915b505050505090509550955095509550955095506156d0565b33600090815260046020526040902054600260001961010060018416150201909116041515806154ae5750336000908152600560205260409020546002600019610100600184161502019091160415155b156155e95760008781526007602052604090206008015460ff16615507576040805162461bcd60e51b81526020600482015260186024820152600080516020615b4e833981519152604482015290519081900360640190fd5b6000878152600760205260409020600681015460059091015414615560576040805162461bcd60e51b815260206004820152601c6024820152600080516020615c81833981519152604482015290519081900360640190fd5b600087815260076020818152604092839020600280820154600483015460058401546006850154600180870180548b519281161561010002600019011696909604601f8101899004890282018901909a528981529498939792969195909492019288918301828280156153b75780601f1061538c576101008083540402835291602001916153b7565b3360009081526006602052604090205460026000196101006001841615020190911604156156d05760008781526007602052604090206008015460ff16615665576040805162461bcd60e51b81526020600482015260186024820152600080516020615b4e833981519152604482015290519081900360640190fd5b6000878152600760205260409020600681015460059091015410615560576040805162461bcd60e51b815260206004820152601e60248201527f5468652070726f647563742069732066756c6c792066696e616e6365642e0000604482015290519081900360640190fd5b91939550919395565b6040805160a081018252838152600560208083018290528284018590526000606084018190526080840181905233815291815292812082518051929491926157249284920190615939565b506020828101516001830155604083015180516157479260028501920190615939565b50606082015160038201805460ff191691151591909117905560809091015160049091015550600192915050565b60006040518060a00160405280848152602001600581526020018381526020016000815260200160006040519080825280602002602001820160405280156157c7578160200160208202803883390190505b5090523360009081526004602090815260409091208251805191926157f192849290910190615939565b506020828101516001830155604083015180516158149260028501920190615939565b50606082015160038201556080820151805161583a916005840191602090910190615a18565b50600195945050505050565b33600090815260036020526040902054606090600260001961010060018416150201909116046158ab576040805162461bcd60e51b81526020600482015260156024820152600080516020615ca1833981519152604482015290519081900360640190fd5b60606002546040519080825280602002602001820160405280156158d9578160200160208202803883390190505b509050600060015b60025481116119d05760008181526007602052604090206008015460ff1661592d57600081815260076020526040902054835184908490811061592057fe5b6020026020010181815250505b600191820191016158e1565b828054600181600116156101000203166002900490600052602060002090601f016020900481019282601f1061597a57805160ff19168380011785556159a7565b828001600101855582156159a7579182015b828111156159a757825182559160200191906001019061598c565b506159b3929150615a52565b5090565b828054828255906000526020600020908101928215615a0c579160200282015b82811115615a0c57825182546001600160a01b0319166001600160a01b039091161782556020909201916001909101906159d7565b506159b3929150615a6c565b8280548282559060005260206000209081019282156159a757916020028201828111156159a757825182559160200191906001019061598c565b6119d691905b808211156159b35760008155600101615a58565b6119d691905b808211156159b35780546001600160a01b0319168155600101615a7256fe496e76616c69642070726f647563742049442e00000000000000000000000000596f75206469646e277420737570706f727420746869732070726f6a656374207965742e4d616e616765722061636365707465642074686520667265656c616e6365727320776f726b2e54686520667265656c616e63657220646f65736e2774206578697374207769746820746869732070726f647563742069642e5468652070726f6475637420697320696e20657865637574696f6e206d6f64652e5468652070726f6475637420697320696e6163746976652e0000000000000000596f75277665206170706c69656420666f7220616e6f746865722070726f647563742e596f75206e65656420746f2062652065787065727420666f7220746869732070726f64756374277320646f6d61696e54686520667265656c616e6365727320776f726b206973206e6f7420646f6e652e596f75206861766520616c7265616479206170706c69656420746f20612070726f6a65742e596f757220787065727469736520646f6d61696e20646f6573206e6f74206d617463682074686520657870657274697365206f66207468652073656c65637465642070726f647563742e596f75206d7573742062652061206d616e616765722c20667265656c616e636572206f722061206576616c7561746f722e5468652070726f64756374206973206e6f742066696e616e6365642e00000000596f7520617265206e6f742061206d616e61676572000000000000000000000054686520616d6f756e742077617320726561636865642c2063616e6e6f7420696e61637469766174652070726f6475637421596f75206d7573742062652061206d616e61676572206f7220612066696e616e636965722ea2646970667358221220674418a9985d344d1287ed0d1464df2c296c9b67363c7674be74800fccdee98a64736f6c63430006020033",
  "source": "pragma solidity ^0.6.2;\r\n\r\nimport \"@openzeppelin/contracts/token/ERC20/ERC20.sol\";\r\n\r\ncontract Token is ERC20 {\r\n\r\n    constructor () public ERC20(\"Token\", \"TKN\") {\r\n        _mint(msg.sender, 1000000 * (10 ** uint256(decimals())));\r\n    }\r\n}\r\n\r\n\r\ncontract Marketplace {\r\n    Token tokenContract;\r\n    address owner;\r\n    uint prodTotal; \r\n    \r\n    struct Manager {\r\n        string name;\r\n        uint reputation;\r\n    }\r\n\r\n    struct Freelancer {\r\n      \r\n        string name;\r\n        uint reputation;\r\n        string expertiseDomain;\r\n        uint contor; //how many projects did he apply to\r\n        mapping (uint => uint) dev; //map the product id with the amount he gives for dev\r\n        uint[] prodID; //remember list with rpoducts id's he applied to\r\n    }\r\n\r\n    struct Evaluator {\r\n        string name;\r\n        uint reputation;\r\n        string expertiseDomain;\r\n        bool applied; //check if he applied for a product\r\n        uint prodID; //remember product id\r\n    }\r\n    \r\n    struct Financier {\r\n        string name;\r\n    }\r\n\r\n    struct Product {\r\n        uint id;\r\n        string description;\r\n        uint developingCost; //dev\r\n        uint devRaised; //the amount raised by freelancers till now, it has to reach evaluatorCompensation\r\n        uint evaluatorCompensation; //rev\r\n        uint balance; //the amount raised by financiers till now, it has to reach totalSum\r\n        uint totalSum; //total for DEV and REV\r\n        string expertiseDomain;\r\n        bool active; //check if the product is active or inactive\r\n        bool prodExists; //check if the product exists, true by default\r\n        \r\n        //map the address of the financier with the amount he gives and remember a list with the financiers addresses\r\n        mapping(address => uint) finantare;\r\n        address[] finAddr;\r\n        \r\n        //map the address of the freelancer with the amount he gives and remember a list with the freelancers addresses\r\n        mapping(address => uint) freelancer;\r\n        address[] freelancerAddr;\r\n        \r\n        //final freelancers\r\n        address[] finalFreelancersAddr;\r\n        \r\n        address evaluatorAddress;\r\n    }\r\n    \r\n    struct prodBools {\r\n        bool wasArbitraj; \r\n        bool arbitraj;\r\n        bool freelancersWorkIsDone;\r\n        bool managerAcceptProductResult;\r\n        bool duringExecution; //check if the product is in the execution mode\r\n        bool isFinalized;\r\n    }\r\n\r\n    mapping(address => Manager) public managerList;\r\n    mapping(address => Freelancer) public freelencerList;\r\n    mapping(address => Evaluator) public evaluatorList;\r\n    mapping(address => Financier) public financierList;\r\n    mapping(uint => Product) public productList; \r\n    mapping(uint => prodBools) public productCheckList;\r\n    \r\n    modifier onlyManager(){\r\n        require(bytes(managerList[msg.sender].name).length != 0, \"You are not a manager\");\r\n        _;\r\n    }\r\n    \r\n    modifier onlyFinancier(){\r\n        require(bytes(financierList[msg.sender].name).length != 0, \"You are not a financier\");\r\n        _;\r\n    }\r\n    \r\n    modifier onlyFreelancer(){\r\n        require(bytes(freelencerList[msg.sender].name).length != 0, \"You are not a freelancer\");\r\n        _;\r\n    }\r\n    \r\n    modifier onlyEvaluator(){\r\n        require(bytes(evaluatorList[msg.sender].name).length != 0, \"You are not a evaluator\");\r\n        _;\r\n    }\r\n    \r\n    constructor(Token _tokenContract) public {\r\n        owner = msg.sender;\r\n        tokenContract = _tokenContract;\r\n        prodTotal = 0;\r\n    }\r\n\r\n\r\n\r\n\r\n    //functions for init manager, freelancer, evaluator, sponsor\r\n    //ok\r\n    function initManager(string memory _name) public returns (bool success){\r\n        managerList[msg.sender] = Manager(_name, 5);\r\n        return true;\r\n    }\r\n    \r\n    //ok\r\n    function initFreelancer(string memory _name, string memory _expertiseDomain) public returns (bool success){\r\n        freelencerList[msg.sender] = Freelancer(_name, 5, _expertiseDomain, 0, new uint[](0));\r\n        return true;\r\n    }\r\n    \r\n    //ok\r\n    function initEvaluator(string memory _name, string memory _expertiseDomain) public returns (bool success){\r\n        evaluatorList[msg.sender] = Evaluator(_name, 5, _expertiseDomain, false, 0);\r\n        return true;\r\n    }\r\n    \r\n    //ok\r\n    function initFinancier(string memory _name) public returns (bool success){\r\n        tokenContract.transferFrom(owner, msg.sender, 10);\r\n        financierList[msg.sender] = Financier(_name);\r\n        return true;\r\n    }\r\n\r\n\r\n\r\n\r\n    // only to be called by managers, add products\r\n    //ok\r\n    function addProduct(string calldata prodDescription, uint developCost, uint evalCompensation, string calldata domainProd) external onlyManager() {\r\n        prodTotal += 1;\r\n        productList[prodTotal] = Product(prodTotal, prodDescription, developCost, 0, evalCompensation, 0, developCost + evalCompensation, domainProd, true, true, new address[](0), new address[](0), new address[](0), address(0) );\r\n        productCheckList[prodTotal] = prodBools(false, false, false, false, false, false);\r\n        \r\n    }\r\n    \r\n    //to be testes again\r\n    // only to be called by managers, inactivate a product\r\n    function inactivateProduct(uint id) public onlyManager() {\r\n        require(productList[id].prodExists == true, \"Invalid product ID.\");\r\n        require(productList[id].balance < productList[id].totalSum, \"The amount was reached, cannot inactivate product!\");\r\n        productList[id].active = false;\r\n        \r\n        if ( productList[id].finAddr.length != 0){\r\n            for(uint i = 0; i <  productList[id].finAddr.length; i++){\r\n                tokenContract.transfer(productList[id].finAddr[i], productList[id].finantare[productList[id].finAddr[i]]);\r\n                productList[id].balance -= productList[id].finantare[productList[id].finAddr[i]];\r\n                productList[id].finantare[productList[id].finAddr[i]] = 0;\r\n            }\r\n        }\r\n    }\r\n    \r\n    // only to be called by managers, view inactive products\r\n    //ok\r\n    function managerShowInactiveProductsId() public onlyManager() view returns (uint[] memory) {\r\n        uint[] memory ret = new uint[](prodTotal);\r\n        uint contor = 0;\r\n        for (uint i = 1; i <= prodTotal; i++) {\r\n            if (productList[i].active == false)\r\n                ret[contor] = productList[i].id;\r\n                contor += 1;\r\n        }\r\n        return ret;\r\n    }\r\n    \r\n    // only to be called by managers, view active products\r\n    //ok\r\n    function managerShowActiveProductsId() public onlyManager() view returns (uint[] memory) {\r\n        uint[] memory ret = new uint[](prodTotal); \r\n        uint contor = 0;\r\n        for (uint i = 1; i <= prodTotal; i++) {\r\n            if (productList[i].active == true)\r\n                ret[contor] = productList[i].id;\r\n                contor += 1;\r\n        }\r\n        return ret;\r\n    }\r\n    \r\n    // only to be called by managers, view all active and inactive products\r\n    //ok\r\n    function managerShowAllProductsId() public onlyManager() view returns (uint[] memory) {\r\n        uint[] memory ret = new uint[](prodTotal);\r\n        uint contor = 0;\r\n        for (uint i = 1; i <= prodTotal; i++) {\r\n            ret[contor] = productList[i].id;\r\n            contor += 1;\r\n        }\r\n        return ret;\r\n    }\r\n    \r\n    \r\n    \r\n    \r\n    \r\n    //ok\r\n    // only to be called by financier, contribute to project\r\n    function financierContributeToProduct(uint productId, uint tokenAmount) public onlyFinancier() {\r\n        require(tokenAmount != 0, \"Please enter a valid amount!\");\r\n        require(productList[productId].prodExists == true, \"Invalid product ID.\");\r\n        require(productList[productId].balance < productList[productId].totalSum, \"Goal reached.\");\r\n        require(productList[productId].active == true, \"The product is not active!\" );\r\n        require(productList[productId].balance + tokenAmount <= productList[productId].totalSum, \"The amount is too big!\");\r\n        \r\n       \r\n        bool checkExistance = false;\r\n        if (productList[productId].finAddr.length != 0){\r\n            for(uint i = 0; i < productList[productId].finAddr.length; i++){\r\n                if (productList[productId].finAddr[i] == msg.sender) {\r\n                    checkExistance = true;\r\n                    break;\r\n                }\r\n            }\r\n        }\r\n    \r\n        if(checkExistance == false){\r\n            productList[productId].finAddr.push(msg.sender);\r\n        }\r\n         \r\n        tokenContract.transferFrom(msg.sender, address(this), tokenAmount);\r\n        \r\n        productList[productId].balance += tokenAmount;\r\n        productList[productId].finantare[msg.sender] += tokenAmount;\r\n    }\r\n    \r\n    \r\n    //only to be called by financier, get amount back from project\r\n    function financierRetrieveAmount(uint id) public onlyFinancier() {\r\n        require(productList[id].prodExists == true, \"Invalid product ID.\");\r\n        require(productList[id].balance < productList[id].totalSum, \"The amount was reached, cannot inactivate product!\");\r\n        require(productList[id].finantare[msg.sender] > 0, \"You didn't support this project yet.\");\r\n        tokenContract.transfer(msg.sender, productList[id].finantare[msg.sender]);\r\n        productList[id].balance -= productList[id].finantare[msg.sender];\r\n        productList[id].finantare[msg.sender] = 0;\r\n    }\r\n    \r\n    //only managers and financiers can see the unfinanced projects\r\n    //ok\r\n    function mfShowUnfinancedActiveProductsId() public view returns (string memory result, uint[] memory) {\r\n        if (bytes(managerList[msg.sender].name).length != 0 || bytes(financierList[msg.sender].name).length != 0){\r\n            uint contor = 0;\r\n            uint[] memory ret = new uint[](prodTotal);\r\n            for (uint i = 1; i <= prodTotal; i++) {\r\n                if (productList[i].active && productList[i].balance < productList[i].totalSum)\r\n                    ret[contor] = productList[i].id;\r\n                    contor += 1;\r\n            }\r\n            return (\"Products ID: \", ret);\r\n        }\r\n        return (\"You must be a manager or a financier.\", new uint[](0));\r\n    }\r\n    \r\n    //only managers, freelancers and evaluators can see the financed projects\r\n    //ok\r\n    function showFinancedProductsId() public view returns (string memory result, uint[] memory) {\r\n        if (bytes(managerList[msg.sender].name).length != 0 || bytes(freelencerList[msg.sender].name).length != 0 || bytes(evaluatorList[msg.sender].name).length != 0){\r\n            uint[] memory ret = new uint[](prodTotal);\r\n            uint contor = 0;\r\n            for (uint i = 1; i <= prodTotal; i++) {\r\n                if (productList[i].active && productList[i].balance == productList[i].totalSum)\r\n                    ret[contor] = productList[i].id;\r\n                    contor += 1;\r\n            }\r\n            return (\"Products ID: \", ret);\r\n        }\r\n        return (\"You must be a manager, freelancer or a evaluator.\", new uint[](0));\r\n    }\r\n    \r\n    //show product info depending on the user's type\r\n    //ok\r\n    function showProductInfo(uint id) public view returns (string memory showDescr, uint showDev, uint showRev, uint showBalance, uint showTotal, string memory showDomain) {\r\n        require(productList[id].prodExists == true, \"Invalid product ID.\");\r\n        \r\n        if (bytes(managerList[msg.sender].name).length != 0) \r\n            return (productList[id].description, productList[id].developingCost, productList[id].evaluatorCompensation, productList[id].balance, productList[id].totalSum, productList[id].expertiseDomain);\r\n        \r\n        else if ((bytes(freelencerList[msg.sender].name).length != 0 || bytes(evaluatorList[msg.sender].name).length != 0)) {\r\n            require(productList[id].active, \"The product is inactive.\"); \r\n            require(productList[id].balance == productList[id].totalSum, \"The product is not financed.\");\r\n            return (productList[id].description, productList[id].developingCost, productList[id].evaluatorCompensation, productList[id].balance, productList[id].totalSum, productList[id].expertiseDomain);\r\n        }\r\n        else if (bytes(financierList[msg.sender].name).length != 0){\r\n            require(productList[id].active, \"The product is inactive.\"); \r\n            require(productList[id].balance < productList[id].totalSum, \"The product is fully financed.\");\r\n            return (productList[id].description, productList[id].developingCost, productList[id].evaluatorCompensation, productList[id].balance, productList[id].totalSum, productList[id].expertiseDomain);\r\n        }\r\n    }\r\n    \r\n    \r\n\r\n    //only to be called by evaluators, allow apply to only one project\r\n    function evaluatorApplyProductId(uint id) public onlyEvaluator(){\r\n        require(productList[id].prodExists == true, \"Invalid product ID.\");\r\n        require(productList[id].active, \"The product is inactive.\"); \r\n        require(productList[id].balance == productList[id].totalSum, \"The product is not financed.\");\r\n        require(evaluatorList[msg.sender].applied == false, \"You have already applied to a projet.\");\r\n        require(keccak256(bytes(productList[id].expertiseDomain)) == keccak256(bytes(evaluatorList[msg.sender].expertiseDomain)), \"Your xpertise domain does not match the expertise of the selected product.\");\r\n\r\n        evaluatorList[msg.sender].prodID = id;\r\n        evaluatorList[msg.sender].applied = true;\r\n        productList[id].evaluatorAddress =  msg.sender;\r\n    }\r\n\r\n    \r\n    //only to be called by freelancers, allow apply to more projects\r\n    function freelancerApplyProductId(uint id, uint amount) public onlyFreelancer(){\r\n    //trebuie retinut cat da fiecare freelancer pe un proiect plus care e proiectul(id) (mapping)\r\n    //contor pentru a face array-ul cu id\r\n    //trebuie stiut la fiecare proiect o lista cu freelancerii care au aplicat(addrs) si valoarea\r\n    //presume that the domain is only one\r\n        require(productList[id].prodExists == true, \"Invalid product ID.\");\r\n        require(productList[id].active, \"The product is inactive.\"); \r\n        require(productList[id].balance == productList[id].totalSum, \"The product is not financed.\");\r\n        require(productList[id].developingCost >= amount, \"The amount is too big.\");\r\n        require(keccak256(bytes(productList[id].expertiseDomain)) == keccak256(bytes(freelencerList[msg.sender].expertiseDomain)), \"You need to be expert for this product's domain\");\r\n        \r\n        freelencerList[msg.sender].contor += 1;\r\n        freelencerList[msg.sender].prodID[freelencerList[msg.sender].contor] = id;\r\n        freelencerList[msg.sender].dev[id] = amount;\r\n        \r\n        productList[id].freelancer[msg.sender] = amount;\r\n        productList[id].freelancerAddr.push(msg.sender);\r\n    }\r\n    \r\n    //only to be called by manager, view freelancer's id's\r\n    function managerViewFreelancersId() public onlyManager() view returns (uint[] memory) {\r\n        uint[] memory ret = new uint[](prodTotal);\r\n        uint contor = 0;\r\n        for (uint i = 1; i <= prodTotal; i++) {\r\n            if (productList[i].active == false)\r\n                ret[contor] = productList[i].id;\r\n                contor += 1;\r\n        }\r\n        return ret;\r\n    }\r\n    \r\n    \r\n    //manager can see the freelancers for a certain project (id)\r\n    function managerShowFreelancersForProjectId(uint id) public view onlyManager() returns(address[] memory){\r\n        return productList[id].freelancerAddr;\r\n    }\r\n    \r\n    //managerul poate verifica cu cat doreste un freelancer sa aplice pe proiectul x + reputatia-> input id proiect, id freelancer, output suma oferita de freelancer, reputatia\r\n    function managerShowFreelancerAddressInfo(uint prodId, address adr)public view onlyManager() returns(uint a, uint b){\r\n        require(productList[prodId].prodExists == true, \"Invalid product ID.\");\r\n        require(productList[prodId].active, \"The product is inactive.\"); \r\n        require(productList[prodId].balance == productList[prodId].totalSum, \"The product is not financed.\");\r\n        require(productList[prodId].freelancer[adr] != 0, \"The freelancer doesn't exist with this product id.\");\r\n        return (productList[prodId].freelancer[adr], freelencerList[adr].reputation);\r\n    }\r\n    \r\n    // //manager creates the final list for freelancers for a certain product so the project can start\r\n    function managerAddFinalFreelancer(uint prodId, address adr) public onlyManager() {\r\n        require(productList[prodId].prodExists == true, \"Invalid product ID.\");\r\n        require(productList[prodId].active == true, \"The product is inactive.\"); \r\n        require(productList[prodId].balance == productList[prodId].totalSum, \"The product is not financed.\");\r\n        require(productList[prodId].freelancer[adr] != 0, \"The freelancer doesn't exist with this product id.\");\r\n        require(productList[prodId].devRaised + productList[prodId].freelancer[adr] <= productList[prodId].developingCost, \"The amount is too much.\");\r\n        require(productCheckList[prodId].duringExecution == false, \"The product is in execution mode.\"); \r\n\r\n        bool check = false;\r\n        for(uint i=0; i<productList[prodId].finalFreelancersAddr.length; i++ ){\r\n            if(productList[prodId].finalFreelancersAddr[i] == adr){\r\n                check = true;\r\n                break;\r\n            }\r\n        }\r\n        if(check == false){\r\n            productList[prodId].finalFreelancersAddr.push(adr);\r\n        }\r\n        productList[prodId].devRaised += productList[prodId].freelancer[adr];\r\n        if(productList[prodId].devRaised == productList[prodId].developingCost){\r\n            productCheckList[prodId].duringExecution = true;\r\n        }\r\n    }\r\n    \r\n    //freelancer marks a product as done/finished\r\n    function freelancerMarkProductAsDone(uint prodId) public onlyFreelancer(){\r\n        require(productList[prodId].prodExists == true, \"Invalid product ID.\");\r\n        require(productList[prodId].active == true, \"The product is inactive.\"); \r\n        require(productList[prodId].balance == productList[prodId].totalSum, \"The product is not financed.\");\r\n        require(productCheckList[prodId].duringExecution == true, \"The product is not in execution.\"); \r\n        \r\n         for(uint i=0; i<productList[prodId].finalFreelancersAddr.length; i++ ){\r\n            if(productList[prodId].finalFreelancersAddr[i] == msg.sender){\r\n                 productCheckList[prodId].freelancersWorkIsDone = true;\r\n            }\r\n        }\r\n    }\r\n    \r\n    //manager can check if the work on a project is done\r\n    function managerCheckIfFreelancersWorkIsDone(uint prodId) public view onlyManager() returns(bool){\r\n        require(productList[prodId].prodExists == true, \"Invalid product ID.\");\r\n        require(productList[prodId].active == true, \"The product is inactive.\"); \r\n        require(productList[prodId].balance == productList[prodId].totalSum, \"The product is not financed.\");\r\n        return  productCheckList[prodId].freelancersWorkIsDone;\r\n    }\r\n    \r\n\r\n    //manager can accept the result from freelancers for a certain product\r\n    function managerAcceptProductResult(uint prodId) public onlyManager() {\r\n        require(productList[prodId].prodExists == true, \"Invalid product ID.\");\r\n        require(productList[prodId].active == true, \"The product is inactive.\"); \r\n        require(productList[prodId].balance == productList[prodId].totalSum, \"The product is not financed.\");\r\n        require(productCheckList[prodId].freelancersWorkIsDone == true, \"The freelancers work is not done.\");\r\n        \r\n        productCheckList[prodId].managerAcceptProductResult = true;\r\n        \r\n        for(uint i=0; i<productList[prodId].finalFreelancersAddr.length; i++ ){\r\n            tokenContract.transfer(productList[prodId].finalFreelancersAddr[i], productList[prodId].freelancer[productList[prodId].finalFreelancersAddr[i]]);\r\n            productList[prodId].devRaised -= productList[prodId].freelancer[productList[prodId].finalFreelancersAddr[i]];\r\n            productList[prodId].balance -= productList[prodId].freelancer[productList[prodId].finalFreelancersAddr[i]];\r\n            if(freelencerList[productList[prodId].finalFreelancersAddr[i]].reputation < 10){\r\n                freelencerList[productList[prodId].finalFreelancersAddr[i]].reputation += 1;\r\n            }\r\n        }\r\n        productList[prodId].active = false;\r\n        productCheckList[prodId].duringExecution = false;\r\n        productCheckList[prodId].isFinalized = true;\r\n       \r\n        if(productCheckList[prodId].wasArbitraj == false){\r\n            tokenContract.transfer(msg.sender, productList[prodId].balance);\r\n            if(managerList[msg.sender].reputation < 10){\r\n                managerList[msg.sender].reputation += 1;\r\n            }\r\n        }\r\n        else{\r\n            tokenContract.transfer(productList[prodId].evaluatorAddress, productList[prodId].evaluatorCompensation);\r\n        }\r\n    }\r\n    \r\n    //manager can decline the result and set it to arbitraj\r\n    function managerDeclineProductResult(uint prodId) public onlyManager() {\r\n        require(productList[prodId].prodExists == true, \"Invalid product ID.\");\r\n        require(productList[prodId].active == true, \"The product is inactive.\"); \r\n        require(productList[prodId].balance == productList[prodId].totalSum, \"The product is not financed.\");\r\n        require(productCheckList[prodId].freelancersWorkIsDone == true, \"The freelancers work is not done.\");\r\n        require(productCheckList[prodId].arbitraj == false, \"Arbitraj exists.\");\r\n        productCheckList[prodId].arbitraj = true;\r\n        if(productCheckList[prodId].wasArbitraj == false){\r\n            productCheckList[prodId].wasArbitraj = true;\r\n        }\r\n    }\r\n\r\n    //evaluator checks the arbitraj mode\r\n    function evaluatorCheckIfArbitraj(uint prodId) public view onlyEvaluator() returns(bool){\r\n        require(evaluatorList[msg.sender].prodID == prodId, \"You've applied for another product.\");\r\n        require(productList[prodId].prodExists == true, \"Invalid product ID.\");\r\n        require(productList[prodId].active == true, \"The product is inactive.\"); \r\n        require(productList[prodId].balance == productList[prodId].totalSum, \"The product is not financed.\");\r\n        require(productCheckList[prodId].freelancersWorkIsDone == true, \"Freelancers work is not done.\");\r\n        require(productCheckList[prodId].managerAcceptProductResult == false, \"Manager accepted the freelancers work.\");\r\n        require(productCheckList[prodId].isFinalized == false, \"Product is finalized.\");\r\n        return  productCheckList[prodId].arbitraj;\r\n    }\r\n     \r\n    //evaluator can accept a product after arbitraj was set\r\n    function evaluatorAcceptProductResult(uint prodId) public onlyEvaluator() {\r\n        require(evaluatorList[msg.sender].prodID == prodId, \"You've applied for another product.\");\r\n        require(productList[prodId].prodExists == true, \"Invalid product ID.\");\r\n        require(productList[prodId].active == true, \"The product is inactive.\"); \r\n        require(productList[prodId].balance == productList[prodId].totalSum, \"The product is not financed.\");\r\n        require(productCheckList[prodId].freelancersWorkIsDone == true, \"The freelancers work is not done.\");\r\n        require(productCheckList[prodId].arbitraj == true, \"Arbitraj does not exist.\");\r\n        require(productCheckList[prodId].managerAcceptProductResult == false, \"Manager accepted the freelancers work.\");\r\n        require(productCheckList[prodId].isFinalized == false, \"Product is finalized.\");\r\n        \r\n        \r\n        for(uint i=0; i<productList[prodId].finalFreelancersAddr.length; i++ ){\r\n            tokenContract.transfer(productList[prodId].finalFreelancersAddr[i], productList[prodId].freelancer[productList[prodId].finalFreelancersAddr[i]]);\r\n            productList[prodId].devRaised -= productList[prodId].freelancer[productList[prodId].finalFreelancersAddr[i]];\r\n            productList[prodId].balance -= productList[prodId].freelancer[productList[prodId].finalFreelancersAddr[i]];\r\n            \r\n            if(freelencerList[productList[prodId].finalFreelancersAddr[i]].reputation < 10){\r\n                freelencerList[productList[prodId].finalFreelancersAddr[i]].reputation += 1;\r\n            }\r\n        }\r\n        \r\n        productList[prodId].active = false;\r\n        productCheckList[prodId].duringExecution = false;\r\n        productCheckList[prodId].isFinalized = true;\r\n        productCheckList[prodId].arbitraj = false;\r\n        \r\n        if(managerList[msg.sender].reputation > 1){\r\n            managerList[msg.sender].reputation -= 1;\r\n        }\r\n        tokenContract.transfer(msg.sender, productList[prodId].evaluatorCompensation);\r\n        evaluatorList[msg.sender].prodID = 0;\r\n        evaluatorList[msg.sender].applied = false;\r\n    }\r\n    \r\n    //evaluator can decline a product after arbitraj was set\r\n    function evaluatorDeclineProductResult(uint prodId) public onlyManager() {\r\n        require(evaluatorList[msg.sender].prodID == prodId, \"You've applied for another product.\");\r\n        require(productList[prodId].prodExists == true, \"Invalid product ID.\");\r\n        require(productList[prodId].active == true, \"The product is inactive.\"); \r\n        require(productList[prodId].balance == productList[prodId].totalSum, \"The product is not financed.\");\r\n        require(productCheckList[prodId].freelancersWorkIsDone == true, \"The freelancers work is not done.\");\r\n        require(productCheckList[prodId].arbitraj == true, \"Arbitraj does not exist.\");\r\n        require(productCheckList[prodId].managerAcceptProductResult == false, \"Manager accepted the freelancers work.\");\r\n        require(productCheckList[prodId].isFinalized == false, \"Product is finalized.\");\r\n        \r\n        productCheckList[prodId].arbitraj = false;\r\n        productCheckList[prodId].freelancersWorkIsDone = false;\r\n        productCheckList[prodId].managerAcceptProductResult = false;\r\n        productCheckList[prodId].duringExecution = false;\r\n        productList[prodId].devRaised = 0;\r\n        productCheckList[prodId].freelancersWorkIsDone = false;\r\n        \r\n        for(uint i=0; i<productList[prodId].finalFreelancersAddr.length; i++ ){\r\n            if(freelencerList[productList[prodId].finalFreelancersAddr[i]].reputation >1 ){\r\n                freelencerList[productList[prodId].finalFreelancersAddr[i]].reputation -= 1;\r\n            }\r\n        }\r\n        productList[prodId].finalFreelancersAddr = new address[](0); \r\n    }\r\n    \r\n    \r\n    // function managerDeleteFinalFreelancer(uint prodId, address adr)public{\r\n    //     require(productList[prodId].prodExists == true, \"Invalid product ID.\");\r\n    //     require(productList[prodId].active, \"The product is inactive.\"); \r\n    //     require(productList[prodId].balance == productList[prodId].totalSum, \"The product is not financed.\");\r\n    //     require(productList[prodId].freelancer[adr] != 0, \"The freelancer doesn't exist with this product id.\");\r\n        \r\n    //     bool check = false;\r\n    //     for(uint i=0; i<productList[prodId].finalFreelancersAddr.length; i++ ){\r\n    //         if(productList[prodId].finalFreelancersAddr[i] == adr){\r\n    //             check = true;\r\n    //             for (uint j = i; j<productList[prodId].finalFreelancersAddr.length-1; j++){\r\n    //                 productList[prodId].finalFreelancersAddr[j] = productList[prodId].finalFreelancersAddr[j+1];\r\n    //              }\r\n    //              delete productList[prodId].finalFreelancersAddr[productList[prodId].finalFreelancersAddr.length-1];\r\n    //              productList[prodId].finalFreelancersAddr.length--;\r\n    //             break;\r\n    //         }\r\n    //     }\r\n        \r\n        \r\n    //     //delete array[array.length-1];\r\n    //     //array.length--;\r\n    //   // return array;\r\n    // }\r\n    \r\n    \r\n    function balanceOf() public view returns(uint){\r\n        return tokenContract.balanceOf(msg.sender);\r\n    }\r\n}\r\n",
  "sourcePath": "F:/facultate/Blockchain-Proj/marketplace/contracts/Marketplace.sol",
  "compiler": {
    "name": "solc",
    "version": "0.6.2+commit.bacdbe57.Emscripten.clang"
  },
  "schemaVersion": "3.3.3",
  "updatedAt": "2021-01-27T15:57:34.335Z",
  "networkType": "ethereum",
  "devdoc": {
    "methods": {}
  },
  "userdoc": {
    "methods": {}
  }
}